:020000040003F7
:10C00000383C0020F9F5030013F6030015F6030091
:10C010000000000000000000000000000000000020
:10C02000000000000000000000000000D5C0030078
:10C03000000000000000000019F603001BF60300DA
:10C040001DF603001DF603001DF603001DF6030098
:10C050001DF60300000000001DF603001DF603009E
:10C060001DF603001DF603001DF603001DF6030078
:10C070001DF603001DF603001DF603001DF6030068
:10C080001DF6030017DC03001DF603001DF6030078
:10C090002DDC03001DF60300A7F503001DF60300C9
:10C0A0001DF603001DF60300000000000000000064
:10C0B0000000000000000000000000000000000080
:10C0C0000348854603F05AFB00480047CFC20300EF
:10C0D000383C00200648704502D1EFF3098101E0A9
:10C0E000EFF30881886902380078024A104700009F
:10C0F000FDFFFFFF9DC10300401E00BF00BF00BF4A
:10C1000000BF00BF00BF00BF00BF00BF00BF00BF37
:10C1100000BFF1D170470000401E00BF00BF00BF4C
:10C1200000BF00BF00BF00BF00BF00BF00BF00BF17
:10C1300000BFF1D170470000401E00BF00BF00BF2C
:10C1400000BF00BF00BF00BF00BF00BF00BF00BFF7
:10C1500000BFF1D170470000056885F30888466884
:10C160000A4AEFF305839A42304602D1084CA646AC
:10C170003047074C064D0646064FF0B4034C034DBE
:10C18000024E024FF0B404480047000000000000D7
:10C19000FFFFFFFF00000021F9FFFFFF10B50C4675
:10C1A000002802D00120086010BD2168002911D0AC
:10C1B0001C48421A814212D03C2A0DD201223C3046
:10C1C0003C310B7803701346521C401E491E3C2B19
:10C1D000F7D904E00E200BE03C2203F093FA002292
:10C1E0003C21104802F026F90E49891E08800020E3
:10C1F000206010BD70B5054600223C21094802F0C0
:10C2000019F9084CA41E2188884201D00B2070BD6A
:10C210003C220449284603F075FA2088401C2080FF
:10C22000002070BD827F0020052070470A4610B5AF
:10C2300001467A4801F0D8FA10BD10B500F0DFFFD2
:10C2400010BD10B5764B86B01ECB03946C460EC461
:10C25000002807D0684618DF002803D000221146C6
:10C2600001F0C2FA0F20800313DF002803D0002260
:10C27000114601F0B9FA6B48C06981B202208339D6
:10C28000032900D80D20684B4822684903F05EF965
:10C29000002803D00022114601F0A6FA00200490E5
:10C2A000059001206946087404A860DF002803D0C7
:10C2B0000022114601F098FA5D4803F06CF900285D
:10C2C00003D00022114601F08FFA06B010BD1CB554
:10C2D0005848C169B1295CD00027C169B2295AD038
:10C2E00000213943019101D00021C1615248032549
:10C2F000C563524C4006E060C00800690121890214
:10C30000884204D000221146104601F06DFA4C48D4
:10C3100000904C4B05220321002001F0AEFC0028C8
:10C3200003D00022114601F05FFA434E46482C3EEE
:10C3300030607D20C000FFF7DFFE20694009C007A4
:10C34000C00F00D0012000903B482C38056020250C
:10C350000126E56001F0AEFF01F0F0FF00281CD0DF
:10C36000A56001F0FAFF002803D00022114601F079
:10C370003BFA77403846FFF764FF00F040F802F0E0
:10C3800012F8002803D00022114601F02DFAE560D2
:10C3900009E00127A1E70121A3E738467040FFF734
:10C3A00050FF00F02CF800990198284F084304D161
:10C3B000B86801F0D7FE002809D1A56001F08BFF15
:10C3C000002803D00022114601F00EFAE5601A4859
:10C3D00002212C380160E560B86801F0C3FE002836
:10C3E00006D001F0ABFF002802D1B86801F07FFF52
:10C3F00011DF01208007C660466030BFFDE70B4AB1
:10C4000010B548321421082001F0FAF9002803D0B1
:10C410000022114601F0E8F910BD0000EFBEADDECC
:10C42000D8F7030040000010E7F50300382F002084
:10C430003BC20300000500404007005000050050CB
:10C440000BE10300F82C002004000200002C002067
:10C45000FFB583B0074600200C9C8646267805462B
:10C460003AE07868A90041180A88684682804988BD
:10C47000C1800022694601A865DF002810D1684606
:10C4800001780598814226D17046002801D000220B
:10C4900000E002222078891841181F2902D90C20B7
:10C4A00007B0F0BD7146002908D1401CC0B2411C44
:10C4B000069B049A21701A5401208646217806981A
:10C4C0000A18694601A865DF0028E9D16946207885
:10C4D0000978401820706D1C3888A842C1DC70466D
:10C4E000002804D020780699801B401E8855002023
:10C4F000D6E7F8B51546069C1E460746022200946C
:10C50000FFF7A6FF002806D13346102229463846F9
:10C510000094FFF79DFFF8BDF7B582B000260546F1
:10C52000167000781446002805D02846039900F0BC
:10C53000CAF8060008D1A87800281ED02078039FEA
:10C54000001D1F2802D90C2005B0F0BD684679DF18
:10C550000028F9D121780322481C20707A542178D0
:10C560001922481C20707A542078C1196846008826
:10C5700000F0A4F8217840182070E8780223002801
:10C5800010D02078039A411C21701354207803990D
:10C59000471C012227700A542078EA78471C039927
:10C5A00027700A546868002815D000214156207869
:10C5B0008C460246C01C03991F28C4D8501C20700A
:10C5C0008B5422780A23501C20708B5420786246AA
:10C5D000431C23700A542889002809D02846009457
:10C5E000062202210830039BFFF783FF0600ABD130
:10C5F000288A002809D028460094072203211030F9
:10C60000039BFFF776FF06009ED1288B002809D0F8
:10C6100028460094152214211830039BFFF769FF68
:10C62000060091D1286A002805D02246039900F01F
:10C630007FF8060088D1686A002805D02246039951
:10C6400000F0B5F8060084D12C20405D002806D00B
:10C6500022462846039900F0DCF80600C7D1304690
:10C6600072E770B50C4692B000216A46117007253A
:10C670001171002809D0C17849070CD502A9FFF72C
:10C680004BFF002808D102AE00E00026002C0ED09F
:10C69000E078002802D0284612B070BD01AA0AA98D
:10C6A0002046FFF739FF0028F6D10AAA00E0002251
:10C6B000684603790178304672DFEDE70870000ABA
:10C6C000487002207047F8B514780746A01C15463C
:10C6D0000E461F2803D87878801C1F2801D90C200B
:10C6E000F8BD1D20001B80B26946864608803019BF
:10C6F000801C7DDF0028F3D13878022805D16846F8
:10C700000088704501D8092107E0787808210028C1
:10C7100001D0704501D968460088421C3255641C1E
:10C72000E2B2B1542978801C081828700020F8BDA6
:10C73000F8B50D4611780646881D14461F2801D904
:10C740000C20F8BD33880720062BFAD31927FF01E8
:10C75000BB4202D94D4A9342F3D17288062AF0D3E4
:10C76000BA4202D9494FBA42EBD1484FBB4203D03B
:10C77000BA4201D09342E4D8481C052220706A5482
:10C7800020781222411C21702A54207841193088C7
:10C79000FFF794FF21784018C0B2207041197088CB
:10C7A000FFF78CFF2178401820700020F8BD70B58D
:10C7B000054600790E46801C1446C0B21178821CD2
:10C7C0008A181F2A01D90C2070BD0A46491C217005
:10C7D000401CB0542078FF22411C21703254207834
:10C7E00081192888FFF76AFF21784018C0B22070AD
:10C7F000AA88002A09D0A968002908D0801902F067
:10C8000081FF2078297940182070002070BD072012
:10C8100070BDF7B582B002981446806A0F460028B2
:10C8200032D0029800252030009028E00298816ADA
:10C830000C2068430E18217830794A1C2270C01CE5
:10C84000785420781622411C21703A542078C1195E
:10C850003088FFF733FF21784018C0B22070B288CB
:10C86000002A09D0B16800290ED0C01902F04AFF91
:10C8700020783179401820706D1C0098EDB2007B53
:10C88000A842D3D800205FE607205DE6FFFF000046
:10C8900038B57B497B4A488890420FD04A787A4C19
:10C8A000521CD2B24A70237B934208D3083175DF01
:10C8B000002803D0A169002900D0884738BD002591
:10C8C0004D70217C002907D03B2176DF002803D062
:10C8D000A169002900D0884761690029EED0684627
:10C8E0000570884738BD70B5054601461C2266486C
:10C8F00002F008FF624C002626702968002907D044
:10C900000822A01802F0FEFE204608307ADF02E07E
:10C910005B4808307BDF002808D1401E6080584803
:10C9200066705A4A0021001D01F0FAF970BD10B579
:10C930005348406801F08FFA10BDF8B550481030E8
:10C9400000F090F800264E4D4F4C002807D061694A
:10C9500000291BD001206A461070684615E028782F
:10C96000002805D06169002910D0684606700CE0E7
:10C97000687800280CD0A1680022686801F02EFABF
:10C98000002803D0A169002900D088472E70F8BD87
:10C990006168F1E7F8B53C4C02880027384DE6891C
:10C9A000102A18D029464968112A21D0122A2DD0E0
:10C9B000502A0FD1C288801DB2420BD1028B022AAD
:10C9C00008D1C27E837E10021843C007C00F13D067
:10C9D000FFF7B3FFF8BD8188698001462848082227
:10C9E0001631103002F08EFE6F70002EF0D0F8BDC0
:10C9F0000020C04368806F70084601F02CFA0028C0
:10CA0000F5D0A1690029F2D08847F8BD811D1C48E6
:10CA10000822103002F076FEDAE7F8B50146184831
:10CA20000822083002F06EFE154808307ADF040054
:10CA30000DD11348103000F015F80125002808D05A
:10CA400011484169002902D0684605708847204690
:10CA5000F8BD0B4E357031460831708875DF0446DD
:10CA60007570F4E74188064808300288914204D383
:10CA70004088814201D801207047002070470000A3
:10CA8000102C0020FFFF0000D030002091C80300D0
:10CA900030B585B0002822D00388FE4CA34220D0B8
:10CAA000FD4B1B78002B1CD0FB4B10255B1C1D7015
:10CAB0005970002401259A70032269460A82009465
:10CAC000019402940394028A0A808D708C8004A9D8
:10CAD0000291039300886946A6DF05B030BD0E20A1
:10CAE000FBE70820F9E7F0B58BB00446022768465B
:10CAF0000773002609968784C68408A80A900D4605
:10CB0000A18A208809AAA5DF002804D0E16A0029AB
:10CB10001AD0884718E06846008CC007C00F13D0B1
:10CB200068460682208803A9A8DF002813D1A97EC1
:10CB300028461B3001220B0002F032FE09460F1C72
:10CB40002227292C442E4600FF20FE306946088209
:10CB5000208803A9A8DF0BB0F0BD6B461E700BE068
:10CB600006221EE069460A71029027E0204690479F
:10CB70000020F0E76B461A702B8B022BF2D2EFE706
:10CB8000684607706946A26AF0E7032000E00420C7
:10CB9000694612E00520FBE7298B032905D2032211
:10CBA00008212046FFF774FFD5E741780278080294
:10CBB00010436946888003D006200870A26AD5E732
:10CBC0000720FAE70920E3E70322EAE730B585B05A
:10CBD0000D46040038D0002D36D06868002833D0C8
:10CBE0000020C043AD4B20800FCB049301AB07C3A3
:10CBF000AB486946088001A8811E63DF002822D166
:10CC0000221D69460120A0DF00281CD168468078DB
:10CC1000A071204600F0CEF8002814D1204600F084
:10CC200059F900280FD12946204600F004F90028C0
:10CC300009D16868A062A868002800D0E06296491F
:10CC400001200870002048E70E2046E73EB5002886
:10CC500028D0002926D0826A002A23D00A88102AE8
:10CC600021D0112A30D0502A1FD0512A1AD10A4679
:10CC70000446891D0878022814D14888238A9842DE
:10CC800010D1907A04280DD006280BD0052809D0A1
:10CC90002046891CFFF727FF002803D0E16A0029FE
:10CCA00000D088473EBD898810E0CB880289934236
:10CCB000F8D108226B461A708A7F1A7120310291CE
:10CCC000826A694690473EBD0021C94301803EBD4E
:10CCD000F0B585B00A4605002DD028886D498842F8
:10CCE0002BD06D480078002827D06B4C1020641C96
:10CCF0002070072060700127A77003216846018219
:10CD00000026E11C104600F04CF801466846008AF7
:10CD10000918684601820096019602960396298AB0
:10CD200001808770868004A8039402902888694651
:10CD3000A6DF05B0F0BD0E20FBE70820F9E7F0B54F
:10CD400085B00A46050028D028885249884226D056
:10CD500051480078002822D04F4C1120641C2070CC
:10CD60000127684607820026611C104600F019F86A
:10CD700001466846008A09186846018200960196B5
:10CD800002960396298A01808770868004A80394FE
:10CD9000029028886946A6DFCBE70E20C9E7082065
:10CDA000C7E70870020A4A70020C8A70000EC87049
:10CDB0000420704730B58FB005461C21684602F04C
:10CDC000BAFC6946087804210843694608700024C3
:10CDD00001940394049405940694A87908A9887092
:10CDE0002F486946801C0884601C00070794000FC8
:10CDF0000C77103048778A7FF9200240F720921C88
:10CE00000240EF200240012002438A77142109A842
:10CE100002F091FC08A8099007A80A9069468C8541
:10CE20001420CC8508860D942B46A888083309AABF
:10CE3000A2DF0FB030BDF0B58FB00F4605461C2104
:10CE4000684602F078FC684601780226314301709A
:10CE5000002401940394049405940694A97908A8E5
:10CE600081700F496846091D0184601C0107090F84
:10CE700068461031079401770020014668464177E3
:10CE8000817FF9200140F720891C0140EF200140FB
:10CE9000012007E0FFFF0000282C0020E8F7030036
:10CEA00030150000014368468177142109A802F07B
:10CEB00042FC08A8099007A80A9068468685C485A0
:10CEC00006860D972B46A888203309AA6946A2DF5B
:10CED0000FB0F0BD30B58FB005461C21684602F09A
:10CEE0002AFC694608780821084310221043694645
:10CEF0000870002401940394049405940694A8797E
:10CF000008A98870144869460884601C00070794C3
:10CF1000000F0C7710304877887FF9210840F721FF
:10CF2000801C08401043012108436946887714217A
:10CF300009A802F000FC08A8099007A80A90694611
:10CF40008C851720CC8508860D942B46A888103335
:10CF500009AAA2DF6DE700003115000031B5054CCC
:10CF600004E0401E00902046FFF7D6F80098002805
:10CF7000F7D138BDE703000018225043FC4A0021D6
:10CF80008018017181604161012281610261C1608B
:10CF90007047FFB581B0F74C049B039A054666784D
:10CFA0001A4303200092002E03D1002A0ED0012242
:10CFB00062706778039A0126360792003B0002F000
:10CFC000EFFB072707162940526127000222EFE7EF
:10CFD0007069326992B25043326933691204920C1B
:10CFE0009BB2594329DF002812D102210FE00846E5
:10CFF00028DF00280CD10399002901D0032106E085
:10D000000499002916D12978042946D017E06170C7
:10D0100005B0F0BD7069326992B25043326993B283
:10D020004B4301461846039A29DF0028F0D10499A2
:10D03000002901D00421EAE72978042920D005211C
:10D04000E5E773693069366980B2434368681B1845
:10D050009B18B6B24E43301880181946049A29DF3F
:10D060000028E9D0D4E7306980B248436968801865
:10D070008A08696929DF0028CAD1009900290CD0E3
:10D080000621C4E77069316989B24843316989B2C0
:10D0900002F022FB28DF0028BAD10721B7E7F8B554
:10D0A000B34918230A780F205A435418B1492279FA
:10D0B0006669241DCF68022A1BD001252D07042A8A
:10D0C0002AD0052A5BD1286981B2304602F004FBE0
:10D0D0000146A36828699A1980B24843101A820849
:10D0E00060681818861928694B1C80B25843801B49
:10D0F00034E0B80262686169121A0918A36830182E
:10D10000181801239B029A4202D2920829DF31E0CB
:10D11000FF22013229DF2DE0E268954914205043B7
:10D12000F4314018001D0BC8B04203D16068594368
:10D13000814218D0022A16D0286981B2304602F006
:10D14000CBFA0146286980B24843301A8208286920
:10D150004B1C80B2584363689B19C01A8308204651
:10D16000FFF717FF06E0286981B2304602F0B4FAF3
:10D17000C01928DF002802D17D4901228A70F8BD3C
:10D18000F8B57B4C069E65780A2D1FD027787D194F
:10D19000EDB20A2D01D30A3DEDB218277D432D19BA
:10D1A000287100206871AA6103C9EE60AB606961F3
:10D1B0002861A1780020002904D1FFF770FF112811
:10D1C00000D100206178491C6170F8BD0420F8BDD1
:10D1D00038B50C46E2680978022A0CD014235A4369
:10D1E000634BF4339D5862680092024620460C302F
:10D1F0006369A84738BD5F4A10321568F3E7F8B590
:10D20000074600205A4E8646B07801281ED10020DD
:10D21000584BB0705A78082A19D03446257818210E
:10D2200069430C19022F20D0032F0FD16079401CC5
:10D23000C0B26071241D032869D0FFF730FF0028B9
:10D2400004D0112802D02146FFF7C2FFF8BD022FFB
:10D2500009D0187000F0B2FA0028F7D031781822FF
:10D260005143891958E05870F4E74249CB685B1C78
:10D27000CB602679241D022E05D167689902B94238
:10D2800001D3012100E000218C46052E01D1072A9F
:10D2900003D00021042E02D003E00121FAE7072A7F
:10D2A00003D00027042E02D007E00127FAE76468C4
:10D2B0009B02A34201D3002A27D000223943114305
:10D2C0006246114317D02B4A29495070D0604878E4
:10D2D000401E4870681CC0B208700A2801D30A3882
:10D2E00008701820684341187046091DFFF770FF49
:10D2F0002846FFF741FE00F061FA0028A6D01C493D
:10D3000018230A785A43511806E00122D6E73078EC
:10D310001821484381190D20091D95E770B5002596
:10D32000144C1348E56065700570457085702E4695
:10D330003046FFF721FE761C0A2EF9D30122120790
:10D340006560516928461269491E92B25143E560F1
:10D35000A1600749F4310D608D600D61CD60054914
:10D3600010310D60888001212170607070BD000057
:10D37000EC300020302C0020F8B5FA4A0446107832
:10D380000E4600282BD0002C2BD0002E29D0206850
:10D39000002826D0012109076768086980B2874202
:10D3A00023D8102F21D3A06800281ED09568784379
:10D3B0004B694219096989B24B439A4215D8012138
:10D3C0000907096989B288420DD90120000700695F
:10D3D000394680B202F080F9002906D103E0082026
:10D3E000F8BD0E20F8BDB80701D00720F8BDDD4913
:10D3F000486801281CD00F4621C61421DA4A41434F
:10D400008E187560236853506168B160A168F1603F
:10D41000A36861680022594301231B07521C1C6941
:10D4200092B2A4B28C4205D21C69A4B2091B02E0DC
:10D430000420F8BD00211C69A4B265190029EDD1B2
:10D44000BD60401C326178600020F8BD30B5C54B2E
:10D450001B78002B07D0002807D0002A05D00468CD
:10D46000002C12D103E0082030BD0E2030BDBE4B91
:10D470001D68002D09D04568986841436918DD682A
:10D48000454358682818884201D8072030BD1460E9
:10D490000020516030BDF8B50446B2481E46007801
:10D4A00015460F46002807D0002F07D0002C05D0C6
:10D4B0002068002817D103E00820F8BD0E20F8BD31
:10D4C000A948016800290ED0C268816840684A43B3
:10D4D00010186268904206D9002D04D0A94202D3E8
:10D4E000A819884201D90720F8BD384600F060F934
:10D4F000002811D0304600F05BF900280CD060689D
:10D5000000F056F9002807D02B463A462146022063
:10D510000096FFF735FEF8BD1020F8BDF8B50446BB
:10D5200090481E46007815460F46002807D0002F69
:10D5300007D0002C05D02068002817D103E0082070
:10D54000F8BD0E20F8BD8848016800290ED0C268D9
:10D55000816840684A4310186268904206D9002DDD
:10D5600004D0A94202D3A819884201D90720F8BDE6
:10D57000384600F01DF9002811D0304600F018F9A7
:10D5800000280CD0606800F013F9002807D02B4663
:10D590003A46214605200096FFF7F2FDF8BD10201F
:10D5A000F8BDFFB56F4881B000781F4616460D469E
:10D5B000002808D0002D08D00198002805D0286840
:10D5C000002817D103E0082022E50E2020E5664C54
:10D5D000206800280ED0E168A0686268414389187D
:10D5E0006A68914206D9002E04D0B04202D3F119E4
:10D5F000814201D907200BE5019800F0D9F80028F5
:10D600001BD0384600F0D4F8002816D0686800F027
:10D61000CFF8002811D068683246C119019802F08D
:10D6200071F80096286814214843245800220321E9
:10D630002846019BA0470020EAE41020E8E4F8B562
:10D64000054648480F460078002805D0002D05D033
:10D650002868002821D103E00820F8BD0E20F8BD7D
:10D66000414C00262068002817D0A168E068484394
:10D6700061684118686881420FD900F099F8002864
:10D680000DD0296814225143091968684A688968CD
:10D69000801A02F021F8002903D00720F8BD1020DD
:10D6A000F8BD3B460022294604200096FFF768FD9E
:10D6B000F8BD2C490978002907D0002807D02A494D
:10D6C000F4394978016000207047082070470E2027
:10D6D0007047244A1278002A0DD000280DD0002966
:10D6E0000BD00268002A08D01E4A10321368002BA3
:10D6F00005D004207047082070470E207047022391
:10D700000B600068106000207047F8B504461548AB
:10D710001E46007817460D46002807D0002D07D07A
:10D72000002C05D02068022820D103E00820F8BD95
:10D730000E20F8BD0B4810300068002816D00846AF
:10D7400000F036F8002813D0304600F031F80028F9
:10D750000ED03B462A46214602200096FFF710FDD8
:10D76000F8BD0000302C0020E03100200720F7E752
:10D770001020F5E708B51A4A1278002A05D00028CB
:10D7800005D00268022A11D103E0082008BD0E204E
:10D7900008BD134A10321268002A07D00B46002237
:10D7A000014604200092FFF7EBFC08BD072008BDEE
:10D7B000800701D0002070470120704710B509494B
:10D7C00000204A78002A09D08978002906D1FFF77D
:10D7D00066FC002802D0112800D1002010BD0000F6
:10D7E000302C0020EC300020BFF34F8F034902485B
:10D7F000C860BFF34F8FFEE70400FA0500ED00E0BC
:10D8000030B5CB0008339DB293070024002B01D024
:10D81000072030BD574B9A605219DA605C701C705B
:10D8200058809980002030BDF7B5524C82B0608896
:10D830000F4681426ED80020694608704F494E4E0F
:10D840004868C005C00D18D0103840B2002807DA6B
:10D850000207120F083A920892005118C96904E0B1
:10D860008108474A8900891809688007C00EC140AD
:10D870000806850F012D01D10AE00425684636DF30
:10D8800002280CD0002803D000221146FFF7ACFF7D
:10D8900022786078A188884203DA401C02E072B6E0
:10D8A000F6E70020C0B2904207D0667860788842E0
:10D8B00001DA401C00E000206070012D0BD062B640
:10D8C0006846007837DF022805D0002803D0002200
:10D8D0001146FFF789FF2848864219D0A068F50055
:10D8E00004994151029900290CD0002F0AD0608878
:10D8F0003A464643E068301801F004FFA068281853
:10D90000878002E0002128188180002005B0F0BD4A
:10D910000420FBE70920F9E70EB504E0684681889A
:10D92000029A0098904702AA01A9684600F003F8FD
:10D930000028F3D00EBD70B50E4B05241D785E781F
:10D94000AE4215D01D781C789E88B44201DA641C62
:10D9500000E000241C705C88DE686C43A41904603D
:10D960009B68E800C418A4880C8018580024106034
:10D97000204670BD482C0020FFFF000000ED00E0B5
:10D9800000E400E08307FF22DB0E9A408907090EBE
:10D99000994000280BDA0007000F08388308FB487D
:10D9A0009B001818C36993430B43C36170478308F6
:10D9B000F7489B001B18186890430843186070478D
:10D9C00070B50124F34960040860F3494010886091
:10D9D000F14940398860F14D6C602F20FEF7ACFBB7
:10D9E000AC60EF4D00242F206C61FEF7A5FB2C717D
:10D9F00070BDF0B5EA4F2421BC6841430D19396967
:10DA00004A1C09D024224A4316196B687268934253
:10DA100004D8D21A726029623861F0BD0A4602E069
:10DA20000A46396A9B1B4E1C0BD024264E433719DD
:10DA30007E689E42F4D324264E4336197768FF1A37
:10DA400077606B60296224214A4311190862F0BD96
:10DA500070B5D34C2269A5681346114606E0814291
:10DA600007D00A46242671434919096A4E1CF6D18B
:10DA700070BD002EFCD08A420CD12420434358199B
:10DA8000006A2061401C05D1C44B0120986000232E
:10DA900063616071242041434819242341685A433B
:10DAA000006A52191062421CE2D0242250434019ED
:10DAB00042685118416070BDF8B5B94C2569681CC1
:10DAC00035D0B848002640686169401A07023F0A0D
:10DAD00019E024204543A0682A185068B84214D899
:10DAE000A3693F1A8619156A002B09D0D16990697C
:10DAF0009847002807D000221146FFF775FE02E084
:10DB00009169D0698847681CE3D1A178E0788142A7
:10DB100006D1401CC0B2E070022801D10020E070A4
:10DB20009F490006800D1C310E5000F0E7F9F8BD4A
:10DB3000F8B504469A4800270169009146785CE0F0
:10DB40009748F100C2688D1851E0601C07D0944AD4
:10DB500024209268604321468018046A24E02878D3
:10DB6000182141436A68401CC0B252182870A97835
:10DB7000884200D12F708A4B516824209B6848430B
:10DB8000C0181378012B34D1037D002B31D1936859
:10DB90008360D368C360136903615269C261804ABC
:10DBA0005279002A00D087607D4B82685B69964677
:10DBB0009C46D31A1A027C4B120A9A4202D2C368BC
:10DBC000D21808E0724663469A1A1202C368120A13
:10DBD000934202D99A1A426000E0476087600122AE
:10DBE000C7600275921E02620846FFF702FF601CC2
:10DBF000ABD1287869788842A7D13046761EF6B234
:10DC000000289DD1664801690098814201D0012019
:10DC1000F8BD0020F8BD65490020086048608860B4
:10DC2000C860624940390860486045E7FEB5002099
:10DC3000C0435B4D02906869019068462E6900F010
:10DC400062F9074600F07CF90446002F08D002AACA
:10DC50000199009800F0BCF90298FFF769FF06E00F
:10DC60000298FFF765FF002801D1002C02D0304652
:10DC700000F0D7F900206871FEBDFFB598070024B9
:10DC800081B01E4615460F4600280BD1002E09D044
:10DC9000FFF796FE42490A9888610F7032460020CD
:10DCA0008E6008E0072005B0F0BD24234343D45420
:10DCB0009B181C75401CB842F7DB24204743BB1956
:10DCC000032048700F461846CB60194618300022D2
:10DCD00018232E465E43D3005B181C705C709D7049
:10DCE00058603018521C032AF5DB0020C04338610D
:10DCF000BC70FC7001242E4824050460032114200C
:10DD0000FFF740FE234880380460264C0198A0604D
:10DD100003211120FFF736FE606878610020C2E71A
:10DD200070B51F4CA568002D06D0002A06D000282B
:10DD300004D00023247809E0082070BD072070BDBE
:10DD400024265E43AE5D002E04D05B1CA342F7DBAD
:10DD5000042070BD242401265C432E556419617093
:10DD6000A2610360002070BD08494868C005C00D6D
:10DD70002ED0103840B200281CDA0207120F083AE1
:10DD8000920892005118C96919E0000000ED00E006
:10DD900000E400E080E100E0401301400010014099
:10DDA000582C002000150140FFFF7F00401101406A
:10DDB00080E200E08108C74A890089180968800765
:10DDC000C00EC1400806800F012803D0032803D0ED
:10DDD000022070470020704701207047FEB50446BE
:10DDE000BD48174682680D46002A0CD001788C4247
:10DDF00001D2052D01D20720FEBD2146242359431F
:10DE0000535C012B01D00820FEBD88184078012802
:10DE10001DD00026FFF7A8FFC000AF490190C968D8
:10DE20004018694600F043F9002812D00121017022
:10DE3000AA49446049680830E2C0A7490198C96806
:10DE400041180098487000F059F80020FEBD2E4699
:10DE5000E0E70420FEBDF8B59F4D0446A868002801
:10DE600009D029788C4201D30720F8BD24216143D1
:10DE7000405C012801D00820F8BDFFF775FFC600FF
:10DE8000E8686946301800F012F900280AD002212B
:10DE900001704460E86831180098487000F02EF86E
:10DEA0000020F8BD0420F8BD38B58B4CA0680028D0
:10DEB00015D0FFF759FFC500E0686946281800F043
:10DEC000F6F800280DD003210170091F4160E068B9
:10DED00029180098487000F011F8002038BD08207B
:10DEE00038BD042038BD7D49496801600020704775
:10DEF000401A0002000A1060002070470120784993
:10DF000000050860704710B5734900238A78CC7803
:10DF1000A24212D0521CD2B28A70022A00D18B7057
:10DF20008A786D4B92001C339A5802604869101829
:10DF30000002000A4861012010BD0360002010BDEE
:10DF4000F8B5654801690091457833E06248E90019
:10DF5000C0680E1834782AE0182060437168641C89
:10DF60000818B178E4B2A14200D100240178022956
:10DF700002D003291BD113E0574A4068242192683C
:10DF800041438F18397D002911D0FFF761FD002032
:10DF900038750CE024277843C0180275006A03E046
:10DFA0004D4900228B680869471CF3D108617078DD
:10DFB000A042D1D128466D1EEDB20028C6D14648F8
:10DFC00001690098814201D00120F8BD0020F8BD10
:10DFD000F7B5414C0025A76823691EE02421594369
:10DFE000C9194E68864202D9301A486017E0801B72
:10DFF000751900264E600E750E699C460B6AB64672
:10E00000002E0AD0019E76193602360A8E607646B8
:10E01000CE6016680E6261461160591CDED1236124
:10E02000FEBDF8B52C4801694A1C3DD0242251435D
:10E03000826889184E6829494C6847690079E11B54
:10E040000D022D0AED1C002815D10120254A0004DF
:10E050005060244A403A50602149400080310860B5
:10E06000214908602149012008602F20FEF764F84B
:10E07000194901200871B54200D23546E81900025D
:10E080001649000A4031086014494968001B091B01
:10E090000902090A0002000AC91C814203D90120B1
:10E0A0000F4940040860F8BDFFF78AFCF8BD4278CC
:10E0B0008378521C934200D100220378934201D10D
:10E0C000002070470A6041684078182250430818C1
:10E0D0007047000000E400E0582C002000150140CB
:10E0E00000E200E04013014000E100E000100140C8
:10E0F00010B50446082904D0002211461046FFF747
:10E1000073FB21686068884710BD1CB501910090C1
:10E11000024A08216846FFF787FB1CBDF1E00300B7
:10E1200010B5B9480378012B02D1022900D1017042
:10E13000100003D000221146FFF756FB10BD10B5AA
:10E14000B14C48DF002803D000221146FFF74CFBFA
:10E15000FFF7E2FB2078022803D0032801D004282F
:10E16000EFD110BD38B50068401C18D000246846B7
:10E1700000F056F90098017801290FD14188002953
:10E1800009D08168A1480022806800F053F9009905
:10E190004988814201D1012400E00024204638BD95
:10E1A00010B5044698481C21001DFFF748FA0028C6
:10E1B00003D000221146FFF717FB934800231C22CF
:10E1C0002146001DFFF767F9002803D00022114601
:10E1D000FFF70AFB10BD0FB4F8B5684600F020F950
:10E1E0006846027E418B0123874CFF258848002A20
:10E1F00012D0012A16D0032A2AD00021022A36D0B2
:10E20000052A46D0042A4ED0062A01D104202070C7
:10E21000F8BC08BC04B018474180099981600370BC
:10E22000057110E04180089A07998918099A8918A0
:10E230008160A521017005710799C160089942614B
:10E2400001610A99816123707148FFF7A9FFDFE737
:10E2500000990A7802704A88428089688160AA2100
:10E2600001710799C1600899016109990BE0009A51
:10E270001678A52E09D0067056884680926882606E
:10E280000571C16001614161DDE741808160057018
:10E29000F6E700F03BFD002803D000221146FFF70F
:10E2A000A3FA0320B3E741808160057000990979E2
:10E2B0000171C9E70EB5574800901C20019001205C
:10E2C0000290FFF72BF8002804D14F496846091D3A
:10E2D000FFF752F80EBD10B500F0D2F9002805D1B5
:10E2E00000F0E3FE0446FFF72AFF204610BD70B59C
:10E2F00011DF002803D000221146FFF775FA4649C6
:10E3000000200A68444B012180330C4684401442AB
:10E3100004D0C506ED0E0C46AC401C60401C202805
:10E32000F3D33A4CA06813DF002803D00022114633
:10E33000FFF75AFAA06800F079F870BD08B5684692
:10E3400000F06EF800980178A52904D00079AA2879
:10E3500001D0002008BD012008BD10B500F084FBED
:10E36000002803D100F061FB00281BD06420FEF7D9
:10E37000F5FD00F002FB002803D000221146FFF754
:10E3800033FA00F071FB002803D000221146FFF79A
:10E390002BFA00F02BFB040003D000221146FFF7FC
:10E3A00023FA204610BD00B587B014221B4901A8EE
:10E3B00001F0A8F90598009001A80FC8FFF70BFF1E
:10E3C000FFF7BDFE002007B000BD10B50E4988B0B4
:10E3D000044600231C22091D6846FFF7E2F8684640
:10E3E000007820706846408860800298A060684687
:10E3F000007920710398E0600498206105986061BD
:10E400000698A06108B010BD7C2C0020002C0020D4
:10E41000F431002021E1030000E100E0F8F70300FF
:10E42000014901607047000000FC030010B5FDF7D2
:10E4300093FE10BD10B50446002A02D010880022B9
:10E4400010E00A48FBE7030A00020343A05C5840BF
:10E4500003061B0F43401803584083B21806C00C34
:10E460005840521C8A42EED310BD0000FFFF00004E
:10E4700070B5F84C1E4660781546022902D0042972
:10E4800016D108E0052813D1A369002B10D032461D
:10E49000294604200BE002280AD1EF484068804753
:10E4A00003206070A369002B02D0324629469847AA
:10E4B000280003D000221146FFF796F970BD00B581
:10E4C000E44987B001200870052069460871059865
:10E4D000009001A80FC8FFF77EFE07B000BD10B581
:10E4E000DC4C2078002801D0082010BD2069FFF7FF
:10E4F000B2FC002803D000221146FFF775F90F2166
:10E500000022C9032069FFF769FC040003D0002240
:10E510001146FFF769F9204610BDCE4910B5CD4828
:10E520002431416102214170C1682430FFF722F992
:10E53000002803D000221146FFF756F910BDC54947
:10E5400010B5C4481C31416102214170C3480F21FC
:10E5500080688903081A4108BE481C30FFF70AF991
:10E56000002803D000221146FFF73EF910BD704786
:10E5700000B587B01422BA4901A801F0C3F8059884
:10E58000009001A80FC8FFF726FEA6E7B2490020B9
:10E5900050394A68B14989688A4208D9511A880AAB
:10E5A00080028905890D02D0012189024018704737
:10E5B00000B587B0012168460171A6488188684688
:10E5C000C180A64880680590A348503841680291F0
:10E5D00081680391C0680490059800900A46049BE6
:10E5E00002990198FFF7F7FD002076E730B59A4CC5
:10E5F0009848503C87B02430E168FFF7BBF800280A
:10E6000003D000221146FFF7EFF89248E2681C3071
:10E61000416800230830FFF778F8050012D1142173
:10E6200001A801F088F800216846017189488188B5
:10E630006846C180E06804900598009001A80FC862
:10E64000FFF7C9FD284607B030BD00B587B00321EC
:10E65000684601717F4881886846C1807E4850388D
:10E660004168029181680391C06804900598009008
:10E670000A46049B02990198FFF7ADFD00202CE7A4
:10E680003EB5774A6B46143207CA07C3714D002462
:10E69000AC702946AC8024316846FFF71AF8002890
:10E6A00001D06C703EBD6D486A4980682431486075
:10E6B00024390A46526ACA610F218903091A490896
:10E6C00040186449674A1C31486062480021103094
:10E6D000FFF726FB002803D000221146FFF784F83D
:10E6E0000F210022C9032869FFF778FB002803D017
:10E6F00000221146FFF778F80120AC606870002016
:10E700003EBD54498861704770B5426852481468EC
:10E71000536891685038D26804604360C260816079
:10E720000078440701D5840705D19C0703D18C07E5
:10E7300001D1940701D0062070BD5B189A18454D91
:10E740000F239B02EA60994213D844490F24896839
:10E75000A403611AC307404C002B07D0914208D391
:10E76000414820604148606041480DE049089142BD
:10E7700001D20C2070BD3F4921603F496160800794
:10E7800001D53E4800E03E48A0606878012802D0EC
:10E790000826304670BDFFF7A2FE0600FAD12168B8
:10E7A000E8688847F5E770B5050004D0287A800747
:10E7B00003D0102070BD0E2070BD264C6078032859
:10E7C00003D0042801D0052801D0082070BD686856
:10E7D000E1688600A0688019884204D90020C043FF
:10E7E000A0600C2070BDFFF77AFE0028FAD1A9685E
:10E7F0003246A3686069FEF788FF0028F2D1A1685D
:10E800008919A160E2689142ECD0092070BD10B571
:10E81000104C0820A168002900D010BD617804299F
:10E82000FBD10D48A178403800F064F9002802D0EF
:10E830000021A17010BD0521617010BDF8B5054C17
:10E840000746607803281DD004281DD008252846D7
:10E85000F8BD0000882C002060320020002C002031
:10E860000CF80300BFE403001BE5030071E503009F
:10E87000B1E503003FE503006FE503004BE603004D
:10E88000EDE5030004206070A068002801D0082096
:10E89000DEE7FFF724FE0500DAD178688600A0786D
:10E8A0008119402901D90920D2E78F4AB968101887
:10E8B000324600F027FFA0788019A070C7E710B596
:10E8C0008A4C6078052813D1E168A06888420FD18E
:10E8D00006206070FFF703FE002808D16069E16838
:10E8E000406800F040F9002801D10721617010BD97
:10E8F000082010BD10B57D484178072901D00820B7
:10E9000010BD0069FFF7A7FA002803D000221146C6
:10E91000FEF76AFF744840308068804710BD00B53C
:10E9200087B00620694608710598009001A80FC8B5
:10E93000FFF751FCD1E5F8B51C4617460D460646D3
:10E9400000F0BDF8002883D001200003854207D9DC
:10E950002346291B301B1A46FFF7EDFF00280BD179
:10E960003A462946304600F0B5F8002804D13A4628
:10E970002946304600F0A3F86AE7F0B589B068464A
:10E98000FFF723FD0398002829D001210903069AE7
:10E990004018904225D9501A45081046039A0C4653
:10E9A0008718024668001618001907905048039906
:10E9B000806888420DD261190846042200F08AF866
:10E9C00000280CD121460422084600F083F80028D4
:10E9D00005D1BA1B2B4630460799FFF7ACFF09B0AB
:10E9E000F0BD039A069800F075F8F8E700B58BB013
:10E9F00004A8FFF7EAFC089800280DD00798002823
:10EA00000CD007990A9840180190002108980091AD
:10EA100080080290684618DF0BB000BD34480F2113
:10EA200080688903091A4908EDE700B58BB004A88E
:10EA3000FFF7CBFC08980028EED00F210798890338
:10EA400000280CD0079A0A9801918018029003229E
:10EA50000898009280080390684618DFDCE7244895
:10EA600080680A1A5208EFE730B58FB06846FFF7A2
:10EA7000ACFC0398002813D001210903069A401822
:10EA8000904213D9501A43081046039A5C0082182A
:10EA900000196118164C039DA468AC4202D20E20E6
:10EAA0000FB030BD121AFFF746FFF9E703200BAB9A
:10EAB00007C3039880080E900BA818DFF0E71FB576
:10EAC000032301909008039000930291684618DF99
:10EAD00004B010BD1FB5012301909008039000936E
:10EAE0000291684618DFF3E720320020882C0020CE
:10EAF000002C002070B500250C290ED304464318C5
:10EB0000008941000919581A0A38C2B21D48022A60
:10EB1000027002D30A318B4201D2092070BD1A481B
:10EB200000F0F0FD19491A480A88824202D0238871
:10EB3000934216D14988814202D06088884210D120
:10EB40001448134A80892189521EA94209D96B00B1
:10EB50001B195B89934202D06D1C8342F5D10020C2
:10EB600070BD0B2070BD10B50022FFF763FC064A94
:10EB70005178127809021143884201D00B2010BD50
:10EB8000002010BDB42C00206C320020801000103A
:10EB9000FFFF0000002C002008280CD004DC002817
:10EBA00007D006280FD108E00B280AD00C280AD17C
:10EBB00005E00120704702207047032070470420C1
:10EBC0007047042901D0062070470520704770B5B2
:10EBD00015460A46032823D0042820D1FE4C0029DC
:10EBE00006D0E088FD49884219D0132176DF10E075
:10EBF000284600F000FC002803D000221146FEF752
:10EC0000F3FDA069A8420AD101220321F448FDF7CF
:10EC10003FFF002803D000221146FEF7E5FD70BD3E
:10EC200001211046FFF7B8FF02460121EEE7F0B5DB
:10EC3000054608790E4685B081070CD0032211469F
:10EC40002846FDF725FF002803D000221146FEF7D5
:10EC5000CBFD05B0F0BDE0490090143100F0A4FBFD
:10EC6000010011D1DC4CB168009A606900F04AFDE6
:10EC7000009800F0F3FB010006D1204669461430ED
:10EC800000F0F8FB010003D0284600F0C3FAE0E7EB
:10EC9000042001900098800802906069039001A808
:10ECA000FFF781FD07000BD0092F10D0606900F03D
:10ECB000A2FB010002D0284600F0ACFA3946E3E797
:10ECC00030792169401820616069A061C1E730791D
:10ECD00021694118216160780028BAD06089401EFE
:10ECE0000004000C6081B4D12846FEF728F8002803
:10ECF00003D000221146FEF777FD20896081A8E746
:10ED000010B500221146FEF76FFD10BD10B5B24CD4
:10ED100001202070E088B149884208D0132176DFB5
:10ED2000002810D000221146FEF75EFD0BE0A0780F
:10ED3000002808D074DF002803D000221146FEF717
:10ED400053FD0020A070FDF7F2FD002803D0002243
:10ED50001146FEF749FD002010BD70B50D78044640
:10ED600001209D4A2B0000F01BFD0A2B30430613A7
:10ED700020575C466012FFF7A2FD0421FFF70CFF4D
:10ED8000024604212EE000221146FEF72DFD70BD43
:10ED9000FFF7BCFF002803D000221146FEF724FD38
:10EDA000FFF7A8FD002808D170BDFFF7AFFF0028CE
:10EDB00003D000221146FEF717FDFFF7B0FD70BD2E
:10EDC000107188680078507170BD022010718868D9
:10EDD00000780128F8D1FFF71AFD0221FFF7DCFEC9
:10EDE000024602212046FDF753FE0028CBD170BD1C
:10EDF0000320107170BD12792046012A06D0022A24
:10EE000007D0032AF6D1FFF712FF70BD00F015FA04
:10EE100070BD00F04FFA70BD50708888108150812D
:10EE200070BD00205070108170BD20461169FDF743
:10EE30004FFFDAE710B5044669488EB0817968461D
:10EE4000817068490180302101A800F074FC022122
:10EE50006846017100218171C47101218181049092
:10EE6000002101A8FDF7FDFB002803D00022114678
:10EE7000FEF7BAFC0EB010BDF0B5574C8BB0A078C1
:10EE800000283AD156481821183800F054FC204682
:10EE9000534CC078183C00250126002837D027465F
:10EEA000483700950195029510226946F81D039593
:10EEB00000F04CFC002822D0F81D08900997684605
:10EEC000067509A804906846067708A806900420ED
:10EED000FFF7B0FF25700220207204A8E060282010
:10EEE00020823F486582183873DF002803D0002253
:10EEF0001146FEF779FC384886700BB0F0BD05204E
:10EF0000FFF798FF2670676025722582E9E70620E3
:10EF1000FFF790FF257065602572E0E770B52E4C15
:10EF200001880022E588A6B017290AD01EDC112925
:10EF30003FD008DC022977D0102902D18088E080F8
:10EF4000A27026B070BD264C3034264618361329E0
:10EF500051D01429F5D1C289638D00219A4200D184
:10EF6000314600238088E21D82DF1BE051296CD0EE
:10EF70000EDC18297ED01929E3D180790028E0D150
:10EF8000A270E068401EE0604FD0FFF775FFD8E741
:10EF9000522974D05529D4D180790028D1D1132198
:10EFA000284676DF0028CCD000221146FEF71CFC54
:10EFB000C7E78020694688823220E060012305AAE5
:10EFC00006A92846AADF002803D000221146FEF732
:10EFD0000BFC2078002807E0B82C0020FFFF000081
:10EFE000903200203015000001D1FFF745FF0020CE
:10EFF000C043E080A5E70722CB490FA800F082FBC1
:10F000001022E11D0BA800F07DFB1C22314611A847
:10F0100000F078FB0BA8099011A8089005ABC34A33
:10F02000852128467FDFBDE70BE01422C04905A8F3
:10F0300000F068FB099805AC00900FCCFFF7CBF807
:10F040007FE70021284667DFACE7817900299ED061
:10F05000807A042803D0062801D0052897D10229F8
:10F060000BD0012069460871FF208330088101A977
:10F07000284600E003E0A8DF94E70220F2E700F072
:10F08000A3F88FE710B50446FDF784FCA648214697
:10F090003038FDF7DBFD2046FFF740FF10BD10B50F
:10F0A00000221146FEF7A0FB10BD30B59F4D87B082
:10F0B00000241C3D2C702C719E4800F064FA00283E
:10F0C0007CD19D48FFF71DFB00F048F9002875D161
:10F0D0009548FDF78FF8002873D0684671DF002847
:10F0E00003D000221146FEF77FFB69464878401C9A
:10F0F0004870002070DF002803D000221146FEF780
:10F1000073FB11206946087207228CA102A87CDFDC
:10F11000002803D000221146FEF766FB00940C2164
:10F1200068460194018018214180FF21848091313B
:10F13000C1807ADF002803D000221146FEF754FB7D
:10F1400006206946009408807E4801907E4802901F
:10F1500075483038FDF73AFD002803D000221146EB
:10F16000FEF742FB1C21684600F0E5FA7748019063
:10F170000120800302900094032168460173C4813A
:10F1800004747348069005946846FDF7ACFB0028AC
:10F1900003D000221146FEF727FB6449E1220878DC
:10F1A000400840001040DF220C301040087007205B
:10F1B000487010208870FFF75FFE002007B030BD58
:10F1C000FFE70120E8709CE770B5584C614D1C3C8E
:10F1D000E088A84201D1082070BDE178002914D050
:10F1E0005149012308223431A9DF0028F4D12A46ED
:10F1F0000C21E088A7DF5849884204D0082802D0B3
:10F20000891C8842E8D1002070BD00231A461946A7
:10F21000A9DF70BD10B50A46044603211046FFF76A
:10F22000BBFC024603212046FDF732FC002803D038
:10F2300000221146FEF7D8FA10BD30B5054687B05A
:10F240000020009001900290039038486A461C38D4
:10F2500040791070364A0C3A1068926804906846FB
:10F260000692059008790C2806D003221BE00022A4
:10F270001146FEF7B9FAA1E78C68204600F049F87C
:10F280000190201D00F045F802902046083000F063
:10F2900040F8039004A8FFF737FA00288ED0012128
:10F2A000FFF77AFC024601212846FDF7F1FB002812
:10F2B000DDD183E7FEB50446087982070ED08207C8
:10F2C000920F04239B1A0022154604E08E683554E1
:10F2D000401CC0B2521C9A42F8D308710120009021
:10F2E000886802900879800801906846FFF7A6FABE
:10F2F00000280DD00221FFF74FFC024602212046D4
:10F30000FDF7C6FB002803D000221146FEF76CFA79
:10F31000FEBD10B5044600F026FA0002E178000AAE
:10F320000906084310BD0000C0320020D42C002084
:10F3300038F8030085F00300CFEB030044667554F2
:10F34000617267005BED03009FF00300CD0C0000CD
:10F3500001ED0300FFFF00000230000056480021CD
:10F3600001705748554A02608160C16001610822FE
:10F370004161426081610846704700207047002863
:10F3800005D04D490A78002A03D0042070470E208A
:10F39000704701220A704849491C016000207047EB
:10F3A000454900200870704710B500291DD0002283
:10F3B0000A60434A5368002B1BD0202817D85B1ED5
:10F3C0005360D0682423401CD06010691468434304
:10F3D000E3180B60012383409169401C19434007E7
:10F3E000400F91611061002010BD0E2010BD0C2057
:10F3F00010BD042010BDF0B5314A064691680029C1
:10F400002AD057691020791A4907490F14680B460A
:10F4100024254D436519B54206D1012495698C40D8
:10F4200065400020956104E0491C4907490F8F425F
:10F43000EED1491C4E07760F956901210C469C4080
:10F4400025420AD19368002B07D05B1E9360536856
:10F450005B1C53603346F1E70420F0BD184A2423B7
:10F46000117C1268491E4907490F594320315050F9
:10F470000020704770B500281AD0002918D0104A13
:10F48000D368002B16D05B1ED360936824265B1CC8
:10F490009360536915681C467343EE182033066069
:10F4A000E858641C08606007400F5061002070BD80
:10F4B0000E2070BD042070BDD92C0020FC3200202D
:10F4C0001C34002010B508461146FCF7AFFE10BDF5
:10F4D000F8B53D4C2078002837D02069002807D0A7
:10F4E0000026E068002805D00025002E04D013E097
:10F4F0000126F6E70125F8E7684651DF052806D022
:10F50000002806D000221146FEF76EF904E001261D
:10F5100002E0216900988847002D12D16088694671
:10F520000880A06861DF052806D0002806D00022E8
:10F530001146FEF759F904E0012502E0E168A068F0
:10F540008847002ED8D0002DCFD0F8BD70B5002947
:10F5500001D08C0701D0072070BD1B4C0125A16094
:10F5600062801A49636010DF0028F5D125701620EB
:10F570002EDF70BD11DF002801D0012100E0002145
:10F58000114A11707047002803D00F49C86000204D
:10F5900070470E207047002803D00B4908610020F7
:10F5A00070470E20704710B507484068002807D004
:10F5B0008047002803D000221146FEF715F910BD40
:10F5C000FFF786FF10BD0000E02C0020C5F403000B
:10F5D00010B5002904D0002211461046FEF704F9A8
:10F5E000FFF776FF10BD10B50021024A0846FEF76E
:10F5F0001BF910BDD1F503000321094802680A4335
:10F600000260084802680A430260074880470748CA
:10F610000047FEE7FEE7FEE7FEE7FEE7FEE7000045
:10F62000240500405405004039F60300C1C0030022
:10F63000234922480860704710B500F01DF80028E3
:10F6400005D021491F484860C813204988612048D7
:10F65000018CC9B201290ED1818C09070BD1018D12
:10F660000906090F042906D1808D0006000F02D17A
:10F6700018490120886010BD1548018CC9B20129C4
:10F6800017D1818C090714D1018D09060A0F03D106
:10F69000828D1206120F0ED0090F012903D1828D1F
:10F6A0001206120F07D0032903D1808D0006000F28
:10F6B00001D0002070470120704700000024F400B2
:10F6C000F42C0020DFFF07C000050040006C004064
:10F6D000C00F00F00006004030B50B460146002088
:10F6E0002022012409E00D46D5409D4205D31D4648
:10F6F0009540491B2546954040191546521E002D40
:10F70000F1DC30BD03460B439B0703D009E008C979
:10F71000121F08C0042AFAD203E00B780370401CC1
:10F72000491C521EF9D27047D2B201E00270401C4F
:10F73000491EFBD270470022F6E710B513460A4671
:10F7400004461946FFF7F0FF204610BD30B50446C9
:10F750000020034600E05B1C934203D2E05CCD5CDA
:10F76000401BF8D030BD0321001D401E037812025B
:10F770001A43491EF9D5104670470000064C012572
:10F78000064E05E0E36807CC2B430C3C9847103449
:10F79000B442F7D3FCF798FC4CF803006CF8030074
:10F7A00030B47446641E2578641CAB4200D21D46FA
:10F7B000635D5B00E31830BC184702E008C8121F05
:10F7C00008C1002AFAD170477047002001E001C14A
:10F7D000121F002AFBD17047020000000000000049
:10F7E000000000000000000023D1BCEA5F78231570
:10F7F000DEEF121200000000020000000000000016
:10F8000000000000000000000000000004000000F4
:10F8100000000000000000000000000000000000E8
:10F8200071E403000000000000000000030000007D
:10F8300000000000000000000500000000000000C3
:10F840000000000000000000000000006CF8030051
:10F85000002C0020F8000000BAF7030064F9030050
:10F86000F82C0020400F0000CAF7030010FFFFFF34
:10F87000DBE5B15100F001006400FFFF0000000073
:10F880000000000000000000000000000000000078
:10F890000000000000000000000000000000000068
:10F8A0000000000000000000000000000000000058
:10F8B0000000000000000000000000000000000048
:10F8C0000000000000000000000000000000000038
:10F8D0000000000000000000000000000000000028
:10F8E0000000000000000000000000000000000018
:10F8F0000000000000000000000000000000000008
:10F9000000000000000000000000000000000000F7
:10F9100000000000000000000000000000000000E7
:10F9200000000000000000000000FFFF00000000D9
:10F930003200000000000000000000000000000095
:10F9400000000000000000000000000000000000B7
:10F9500000000000000000000000000000000000A7
:04F960000024F4008B
:020000041000EA
:0410140000C0030015
:040000050003C0C173
:00000001FF
