:020000021000EC
:10F0000000800020C53A0200A53A0200A53A02009D
:10F0100001E01E5B00000000000000000000000096
:10F02000000000000000000000000000A53A0200FF
:10F030000000000000000000A53A0200A53A02000E
:10F04000A53A0200A53A0200A53A0200A53A02003C
:10F05000A53A020000000000A53A0200A53A02000D
:10F06000A53A0200A53A0200A53A0200A53A02001C
:10F07000A53A0200A53A0200A53A0200A53A02000C
:10F08000A53A0200A53A0200A53A0200A53A0200FC
:10F09000A53A0200F91F0200390A0200A53A02004F
:10F0A000A53A0200A53A020000000000000000009E
:10F0B0000000000000000000000000000000000050
:10F0C00010B5064C2378002B07D1054B002B02D03E
:10F0D000044800E000BF0123237010BD7821002008
:10F0E00000000000845A020008B5084B002B03D032
:10F0F0000748084900E000BF07480368002B03D019
:10F10000064B002B00D0984708BDC0460000000009
:10F11000845A02007C210020845A02000000000072
:10F1200008B5084B0121186804F028FB064B0021A4
:10F13000186804F023FB0548054B836000F0C6F80F
:10F1400008BDC046102000200C2000209421002083
:10F15000FE56020070B5061C04F0FEFA041C051CE5
:10F1600004F0FAFA0C4B001B1B68984212D20B4BAE
:10F17000186804F059FBB04208D104F0EDFA084BCE
:10F18000401B1B689842EBD3012004E004F0E4FA32
:10F19000051CE5E7002070BD082000200C200020A1
:10F1A0000420002038B50E4C051C01212068002DDC
:10F1B00000D1291C00F04CFD01204042C11700F095
:10F1C000FFFB281CFFF7C6FF0028F5D0206800F0E1
:10F1D000BBFC002802D0206800F0C0FC38BDC0464F
:10F1E0000C20002010B50120FFF7DCFF064C0121A8
:10F1F000201C00F0C9F80020FFF7D4FF201C0021DC
:10F2000000F0C2F810BDC0469421002008B5034BA1
:10F210000021186804F0ECFA08BDC0461020002058
:10F2200008B5044B01781868002900D0012104F0CA
:10F23000DFFA08BD102000207FB51821684604F0D1
:10F2400035F900280AD0064B002B07D06946142355
:10F25000CA7CCB56009801A900E000BF07B000BDF2
:10F2600000000000144BF0B501261E60134B85B062
:10F270000360134B00254360124B1027041C83606E
:10F2800005733A1C6846104906F017FA201C3A1C10
:10F2900069460D3006F011FAE31CC522E58325848A
:10F2A000DA77502363620423A362231C2C33201CCF
:10F2B0001E7005B0F0BDC046A42200206C580200AC
:10F2C000165702001E57020006570200204B10B5C9
:10F2D0001B78041C002B12D11E4B1B78002B0ED068
:10F2E00000F0BAF896239B01984208DD1A4C20786A
:10F2F000002803D0013400F0BBF9F8E7FEE72268EC
:10F30000164B211C1A606268154B0D311A60A268F9
:10F31000144B15481A60227B144B1A70102206F009
:10F32000CCF9E28B124B1A80228C124B1A80E31C10
:10F33000DA7F114B1A70626A104B1A60A26A104B86
:10F340002C341A7022780F4B1A7000F09DFE10BDFD
:10F35000CD210020CC2100202557020004230020CD
:10F360007C2000209C2000208920002008230020F1
:10F37000F8220020722300207A2000208420002020
:10F38000802000208820002007B5684607300170E3
:10F39000012101F099F80EBD022310B5036004238A
:10F3A000041C43600749142004F07AF9064AC52377
:10F3B0009B00D158FF208143C0200143D150201C25
:10F3C00010BDC04639F2010000E100E008B5034875
:10F3D000FFF7E2FF0248FFF745FF08BDC421002008
:10F3E0009421002008B5024804F0E0FA08BDC046A8
:10F3F000D021002038B50A4CA12301250022DB00D2
:10F400006560A560E2500223D1229A40A350C12238
:10F410009A40A3501120034904F042F9256038BDF9
:10F4200000100140D136020008B5FFF7E3FF084A9B
:10F43000A023DB0503219950064A80210906995033
:10F44000AF2380220021DB00D205D15008BDC04689
:10F450007C0700000C050000374A384BD358384A67
:10F46000934253D025D8374A934247D00DD89D2296
:10F47000120393425DD0344A93423CD09E22D20282
:10F48000934254D19620C00055E0304A934238D080
:10F4900006D8E120EC228001920393424BD046E053
:10F4A0002B4A93422FD08022120493423FD1294805
:10F4B00041E0294A934231D00AD8284A934228D0C1
:10F4C000274A934227D0274A934230D1E1201EE0B9
:10F4D000254A934225D005D88022D204934226D1D2
:10F4E000224828E0224A93421ED0802252059342AD
:10F4F0001DD120481FE0962040011CE0962080018D
:10F5000019E0962000E0E120C00114E096200002FE
:10F5100011E0962000E0E12040020CE0E1208002B2
:10F5200009E0E120C00206E0E120000303E0002042
:10F5300001E09620000170470020004024050000F3
:10F5400000509D000050270000B0130000A04E00A6
:10F5500000F07500127A000000B0AF0300903A018D
:10F5600000E0D70100F0EB0000705F0790D00300CF
:10F57000A4DFBE0E40420F00044B054AD050054B9D
:10F580001A78012A01D102221A7070471C05000066
:10F5900000200040CC210020014B0022DA6070479F
:10F5A000FC200040014B00221A627047FC20004002
:10F5B00008499022D2008858012330B5184001D064
:10F5C0008B5004E08D580424254201D08C50181C27
:10F5D00030BDC0460020004038B5074D281C04F05F
:10F5E00041F9064C201C04F03DF9291C221C04485A
:10F5F00004F096F938BDC046EC21002034220020EA
:10F60000D021002070B5154E3378002B25D014483A
:10F6100004F063F9134B144A002199640121D1606D
:10F6200051609A6C104C002AFBD0A023DB0000250F
:10F63000E550022004F03EF80C4B0C22E158A023C8
:10F64000C131FF31DB058900CA50A121C9006158D1
:10F65000C131FF318900CA50357070BDCC21002006
:10F66000D0210020FC200040002000400C050000BC
:10F6700008B5011C014804F077F908BDD02100202D
:10F68000F7B5041C08A800788446714806780196EE
:10F69000002E00D0DAE0E0277F00D619A0206D4FC1
:10F6A000C005B6003750E02676008F19019EBF00D6
:10F6B0003E50694E694FF251694AB150A222D200C0
:10F6C000FF2B07D0E0277F00D919019F89000F5039
:10F6D000B35002E001214942B150A1226146D2005B
:10F6E000FF2909D0E0277F00391C6144594F890068
:10F6F00047506046B05002E001214942B150962285
:10F70000120294425DD029DC96229201944252D09A
:10F710000EDC96221201944248D096225201944265
:10F7200047D09622D200944256D19E25ED0253E056
:10F730009622D201944240D006DCE122920194420A
:10F740004AD1EC25AD0347E0E122D201944236D004
:10F75000444A944240D180252D043DE0E1229202AA
:10F76000944234D00DDC9622520294422BD0E122F6
:10F770005202944229D0E122120294422CD13A4DF5
:10F780002AE0E122D202944223D005DC374A944297
:10F7900022D18025ED041FE0E122120394421AD009
:10F7A000334A944218D180256D0515E09D252D031F
:10F7B00012E0304D10E0304D0EE0304D0CE0304D99
:10F7C0000AE0304D08E0304D06E0304D04E0304DA9
:10F7D00002E0304D00E0304D304AB550304AFF2B4A
:10F7E00006D16146FF2903D11B4B0021995001E04E
:10F7F0000123B350A0230422DB00F250C1239B005D
:10F80000F25884210A43F250264B0022DA601A6231
:10F810000F4B0125022024491D7003F041FF234BAB
:10F82000B5601B783560002B10D1214B1B68002B75
:10F830000CD096239B019C4208DD1E4C20780028AA
:10F8400003D00134FFF714FFF8E7FEE7F7BDC04629
:10F85000CC21002001030000002000400C05000026
:10F8600014050000127A000000F0EB0090D00300B5
:10F8700040420F0000B013000050270000A04E00CF
:10F8800000F0750000509D0000903A0100E0D701A3
:10F8900000B0AF0300705F07A4DFBE0E24050000B8
:10F8A0006C050000FC200040E5F30100CD210020A4
:10F8B000A8220020C85702002EDF70472FDF7047B4
:10F8C00033DF704735DF704748DF704722DF70470E
:10F8D00070B58901002815DAC0B20F230340083B38
:10F8E000124A9B089B009B1803221040FF24C20071
:10F8F000DD69201C904085430C4094402A1C224323
:10F90000DA6112E082080A4B03249200D2182040E8
:10F91000C023A0409B00FF24D558261C8640B54339
:10F920000C408440281C2043D05070BD00ED00E006
:10F9300000E100E0F8B5BE221B4B52009A58002AA5
:10F9400031D0A223A022D205DB00D358174A184D8C
:10F9500012681A43D2431343164A126813402B60AD
:10F960002B68002B05D1BE230F4900225B00CA5033
:10F9700019E00024104B1B689C42F4DA0F4EE7009C
:10F980002B68B8590122C34013420AD0F3195B68AF
:10F990009847002805D1BA592B68012191408B4323
:10F9A0002B600134E6E7F8BD00600040A022002093
:10F9B000B4220020AC220020B0220020B822002077
:10F9C000F0B5564B544A041C0D1C12196B4189B0FA
:10F9D000581C02D1564B9A4201D8514C514D03F05C
:10F9E0009BFE544B02901B68C0170390002B00D065
:10F9F0007CE0002D01D1012C78D901225242D3178D
:10FA0000201C291C8018594100900191019A4A4EEE
:10FA10004A4BD103F758430C1943009B0137D803D5
:10FA2000414A424B04F0BAF9A823DB003F18F750D3
:10FA3000D12280235B029200B350C1229200B350C6
:10FA40003F4B1A68002A10D18023A321DB05012037
:10FA5000C900D8605A503B498A6098608B68002B77
:10FA6000FCD080230122DB055A60324B344F1B68E7
:10FA7000002B10D0D22200239200B350C222920059
:10FA8000B3503B68002B31D12E4A012153608023B3
:10FA9000DB05196019E03868002802D0FFF714FF71
:10FAA00000E030BF03F038FE0490C0170590049AC0
:10FAB000059B02980399121A8B4101999942D4D857
:10FAC000D8D100989042D0D8D4E751688023DB0584
:10FAD0000029FAD0A32601210020F600D960985110
:10FAE000184EB06099609368002BFCD0114B1B68D6
:10FAF000002B0FD103F010FE0690C0170790069A56
:10FB0000079B02980399121A8B419D42EED801D1AE
:10FB10009442EBD809B0F0BDFF7BF3DBFFFFFFFFA2
:10FB200000840C2400000000E80300000000000036
:10FB3000FD7BF3DBB422002000100140040500002F
:10FB4000A8220020FC000040034B1B68C340181C87
:10FB5000012318407047C046B4220020034B012106
:10FB60001A6881408A431A607047C046B422002058
:10FB700008B5074B1B68002B02D0FFF7A3FE08BD9A
:10FB8000BFF34F8F034A044BDA60BFF34F8FFEE79A
:10FB9000A82200200400FA0500ED00E008B5074B9C
:10FBA0001A6801238340181C002A02D0FFF78EFE3A
:10FBB00003E0A1220249D2008B5008BDA8220020F8
:10FBC00000F001400D4B10B51B68041C002B08D041
:10FBD00044B2201C0121FFF773FE201CFFF76CFECE
:10FBE0000AE040B20121FFF773FE1F231C400123EE
:10FBF000A3401C1C024B1C6010BDC046A822002064
:10FC000000E100E008B5084B1B68002B03D040B2B0
:10FC1000FFF754FE06E01F23184001238340181C01
:10FC2000024BD86708BDC046A822002004E100E0CE
:10FC300008B5064B40B21B68002B03D0C9B2FFF7D2
:10FC40003FFE01E0FFF744FE08BDC046A8220020A9
:10FC500038B5A022374BD205D3580124C3402342E4
:10FC600067D1A1421DD0002938D0052953D1A02346
:10FC70008200DB05D218E023DB00D5582E498440F2
:10FC80002940D150D158E043D1502C4B1A68024042
:10FC90001A602B4B1A6802401A602A4B1A681040EF
:10FCA00038E0A023DB058200D218E023DB00D55822
:10FCB000214C81402C40D450D5588024A4022C43A0
:10FCC000D4501E4B1A680A431A601D4B1A680A4327
:10FCD0001A601C4B1A688A431A601CE0A023820039
:10FCE000DB05D218E023DB00D558134984402940B6
:10FCF000D150D558C02189022943D1500F4BE04340
:10FD00001A6822431A600E4B1A6802401A600D4BA3
:10FD10001C68204018600C4A8021C12309069B0002
:10FD2000D1500620094903F0BBFC06200321FFF750
:10FD30007FFF38BD14050000FFFFFCFFAC22002050
:10FD4000A0220020B42200200060004035F901000C
:10FD5000BFF34F8F024A034BDA60BFF34F8FFEE7CA
:10FD60000400FA0500ED00E072DF704773DF7047B2
:10FD700074DF704776DF704777DF70477ADF704750
:10FD80007CDF704784DF704785DF7047A7DF7047EF
:10FD900060DF70474EDF70474FDF704750DF7047BE
:10FDA000014B18607047C0469C22002008B50748E8
:10FDB000FFF7DCFF002801D0FFF7CAFF044B002B40
:10FDC00002D0012000E000BF08BDC046C4230020CF
:10FDD0000000000038B5041C01F024FB2A4D211C52
:10FDE000281C02F085FC294B1B68002B03D02848F7
:10FDF000211C02F091FA208810380A2843D803F019
:10FE0000D5FE061D36424242424242252E00214B7B
:10FE1000002B02D0002000E000BF1F4B002B01D0C0
:10FE200000E000BF1D4B002B2DD0688CFFF7ACFF0E
:10FE30000121688C0A1CFFF7A5FF24E0184B002B5A
:10FE400001D0FFF7E3F9FFF7B1FF1CE0A07900282C
:10FE500019D1104B002B16D000E000BF13E00F4B60
:10FE6000002B10D00620205600E000BF0BE02089B8
:10FE70006289A1890B4BE4881C600B4B18600B4B0B
:10FE800019600B4B1A6038BD1023002000200020A1
:10FE90003C230020000000000000000000000000E3
:10FEA0000DF20100BC280020C0280020B42800204A
:10FEB000C428002008B50A4B588C0A4B984206D03B
:10FEC0001321FFF757FF002804D0FFF741FFFFF78A
:10FED0004FFFF8E7FA20400003F042FC08BDC0469F
:10FEE00010230020FFFF000030B5041C85B0002A5D
:10FEF00001D0FFF72DFF1A4B1B68002B2CD00B787D
:10FF0000152B29D1174D042301A90293039501F064
:10FF100001F900281DD12B68DA0714D5124B134ABA
:10FF2000588C0C21FFF732FF0822031C93430AD0A0
:10FF30000F4A904207D00F4A904204D0112802D0B5
:10FF40000D4A9042D5D1201C01F040F9002803D081
:10FF5000CFE70A4B9842CCD1002005B030BDC04657
:10FF6000002000206C23002010230020FFFF000051
:10FF70000230000004300000013400004080000026
:10FF8000031C1948002210B542600270174A041C75
:10FF90001278002A26D0012B0FD0002B06D0022B7E
:10FFA00020D1134B1B685B6898471BE0114B124A2A
:10FFB000D258124B1A6001220EE00D4B1B681B6ACF
:10FFC00098470C4B0C4AD2580C4B1B68D21AC423CE
:10FFD0005B009A4206D90222094B1A708022094B13
:10FFE00012045A60201C10BDFC2200203423002083
:10FFF000B02000200405000000100140C8280020A7
:020000022000DC
:1000000071230020FCE100E01FB5094B01240948E1
:100010001C70FFF7BFFE6A46002313701371064B76
:1000200068460293054B54710393FFF7B7FE1FBD5B
:100030003423002081FF0100204E000040420F00C9
:1000400010B5041C01F046FD072C08D1FFF7A4FEF3
:10005000084B1B78002B0BD0FFF7D6FF08E0023CC3
:10006000012C05D8044B1A78002A01D000221A70FE
:1000700010BDC046342300207423002008B5FFF7CC
:1000800067FE08B5FFF764FEF0B5BD4DBD4B2868AF
:100090000126BFB01E60BC4C002802D00378002BA4
:1000A00001D100230DE0B94905F018FB002801D16A
:1000B000267007E0286805F01BFB0223042800D007
:1000C00003232370B24F386805F012FBB14DB24BD9
:1000D0002870186805F00CFB2378B049033B5A1EC2
:1000E00093412A78C0B208709B001F2A01D91F22B1
:1000F0002A702A780026B24201D0961CF6B200245B
:10010000A04201D0041DE4B20633F318E318DBB2B9
:100110001F2B12D91F3BDBB200280AD0834205D91E
:100120000124201A1B18DBB20C7002E0C01A087000
:100130000023002A01D0D31A2B70994B00229A5623
:10014000143201DAEC221A7000229A56042A01DDD8
:1001500004221A70934B1A68132A01DC14221A60C5
:100160001968A0229201914200DD1A608022832347
:10017000D205DB00D1580D20CC0305D5D25803237E
:100180001340012B00D1022087494822002300F0B0
:100190001BFC011E01D0FFF7DBFD04AC201C082274
:1001A00005F094FA237801263343201C2370FFF7CF
:1001B000EFFD0028EFD17D4800F02AFC0028EAD1AD
:1001C0007B4800F02FFC0028E5D101F027FD002836
:1001D000E1D101AC201C00F081FE002805D0201CDC
:1001E000267000F07BFE0028D5D1684608AC0021BF
:1001F0000522253005F06AFA637901210B43E122DB
:1002000013400C2213432022934363710723A371ED
:10021000684B102621716848211CE671089300F094
:10022000CDFE0028B7D1012302A8334339682A78CC
:100230000370FFF7A5FD011EADD1604F604C3E601D
:10024000604E1823604D33606423236006AC286041
:100250000822201C05F03AFA3B685949238033688C
:10026000201C63802B68A3800B68E380FFF786FD6A
:10027000002890D14A4C00202056FFF77DFD002831
:1002800089D1524C201C02F06DFA061E83D1504BCE
:100290001B68002B18D00BAD311C0C22281C05F05C
:1002A00015FA4C4B01224C48291C6B60AE602A8029
:1002B00001F0DAFE002800D06DE7484802F09CF912
:1002C0003D4B187802F09EF9454B1D68002D09D072
:1002D000444B281C1978444B1A68444B1B78FFF791
:1002E00043FDABE0424B1F78002F26D0414B6846C0
:1002F00014AC414910225230238005F0DEF93F4B07
:100300000EAE1B8810945BBA63823D4B291C1B8880
:1003100030225BBAA3823B4B1B78A3751AAC4C23EB
:100320003380201C1723B38005F0D0F904232570F7
:10033000E3706662201C291C7BE0638803AE338077
:10034000237826AC3022B370391C201C05F0BEF98E
:100350000F4B32AD1B68281C1B78391C5A1E934169
:100360005B00237030220623E370A77005F0AEF91E
:10037000054B1A780123032A46D12B826E6145E092
:1003800004230020A8220020FB2200206D58020038
:100390007C200020B82800209C200020B0280020CD
:1003A000802000208420002078230020D5FD01003B
:1003B00041000200E9FE0100C0230020BC2800200B
:1003C000B4280020C0280020C428002010230020CA
:1003D00000200020A12402003C230020B5FE0100E3
:1003E0000C2300207023002038230020FA22002054
:1003F000082300200215000089200020F822002098
:10040000722300207A20002023826661264B19780F
:10041000002907D011AB9980244900200968188071
:1004200013916362224961600021032A00D1291CD3
:10043000201C00F033FA002800D0ACE61D4C182236
:10044000201C002105F042F91B4B18881B4B1A7821
:1004500000239A4207D11A4B1B685A425341023378
:10046000632800D86420002523706560257204F09D
:10047000F5FC0C4B0A4A03F029FD03F0D1FC0521E1
:100480002082104A0120658201F0C6FDA84200D0FA
:1004900081E6FFF78BFC3FB0F0BDC046C046C046CA
:1004A000000000000000E43FB02800209C20002055
:1004B00080200020C42300208420002088200020E9
:1004C00038230020A1FD010010B5021C88B00C1CCF
:1004D000202900D92024E4B2111C6846221C05F012
:1004E000ECF86946221C044802F09AFA434258414B
:1004F000C0B208B010BDC0461023002072DF7047A4
:1005000079DF70477DDF704765DF7047F0B587B0F2
:100510000C9F061C387800240391029200930190EE
:10052000251C33889D4238DA7268A900511805A845
:10053000042205F0C2F8694605A813310022FFF72E
:10054000E3FF002832D16846C37C02998B4220D158
:10055000624262413B78520059188A181F2A1ADCFD
:10056000002C06D19A1C3A7001330398009ADBB232
:10057000D05400996C463A7813348A1805A8211C87
:10058000FFF7C2FF002811D13A7823780124D3184D
:100590003B700135C5E70C2008E00020844205D0FF
:1005A0003B78019A013B00999B1A8B5407B0F0BD30
:1005B000F7B5089E171C00960222051C1C1CFFF7AD
:1005C000A5FF002806D10096281C391C1022231CE8
:1005D000FFF79CFFFEBD0000F0B500231370037809
:1005E00087B0061C0D1C141C002B03D1B378002B04
:1005F00047D027E043780C201D2B00DD46E16F46F5
:1006000016371D23881C391C3B80FFF77BFF002811
:1006100000D03BE13378022B03D13B8809221D2B0C
:1006200007D97378002B02D008221D2B01D93B88F3
:100630000822DBB2591C29706A70227802329B189A
:100640002370D3E723780C201B2B00DD1EE16F46BF
:100650001637381CFFF754FF002800D016E1237826
:1006600039885A1C22700322EA5423785A1C2270BB
:100670001922EA542378EA1811700233090A5170DA
:100680002370F378002B0ED023785A1C227002229C
:10069000EA5423785A1C22700122EA5423789A18CB
:1006A0002270F278EA547368002B12D01A782378FB
:1006B0000C201C2B00DDE9E0591C21700221E954BB
:1006C0002378591C21700A21E9542378591C217080
:1006D000EA543389002B03D1338A002B16D00AE069
:1006E000301C00940830022106222B1CFFF760FF0B
:1006F0000028F1D0CAE0301C0094103003210722FA
:100700002B1CFFF755FF002800D0BFE0338B002BD8
:100710000AD0301C00941830142115222B1CFFF72E
:1007200047FF002800D0B1E0336A002B42D0217887
:100730000C200A1C063202911F2A00D9A6E0198853
:100740000720052900D8A1E0514A8F18514ABFB2AD
:10075000974200D89AE05A88052A00D896E04C4F74
:10076000BF18BFB2BC464B4FBC4500D88EE04A4FC5
:10077000B94204D0BA4202D0914200D986E0029A2E
:1007800002990132227005226A542278511C21708C
:100790001221A95422781888A9180870000A4870F4
:1007A000901CC0B2207059882B1819700432090AA5
:1007B00059702270776A002F28D03A792378911CDB
:1007C000981CC9B241180C201F295FDC591C033248
:1007D0002170EA5423785A1C2270FF22EA542378AD
:1007E0003988EA1802331170DBB2090A517023709C
:1007F000BA88002A0AD0B9680720002946D0E8182C
:1008000004F05BFFBA882378D3182370371C2C3789
:1008100003973B780020834238D0B16A814201D0EF
:10082000029021E0072031E0029A0C275743B36A77
:10083000DF193A7923780332591C2170EA5423785E
:100840005A1C22701622EA5420783A882B1802305B
:100850001A70C0B2120A5A702070BA88002A09D1E0
:10086000029B0133DBB20293039F3B78029FBB42A2
:10087000DAD80AE0B9680029D4D0281804F01DFF9E
:10088000BA882378D3182370EAE7002007B0F0BDB8
:100890007FF3FFFF7DF30000FFFF0000F0B593B092
:1008A0006D466E460023063507360C1C2B703370E0
:1008B000984204D0C3785A070FD407201DE0071CC4
:1008C000002C03D0E378002BF7D10EE0221C29780E
:1008D0003378381CFFF712FE0FE002A92A1CFFF73D
:1008E0007BFE02AF0028EBD007E0321C201C0AA9D7
:1008F000FFF772FE0AAA0028E9D013B0F0BD2EDF80
:10090000704751DF704710DF704761DF704708B5EF
:10091000081C111CFFF7B5FB08BD0000F0B5254B06
:1009200085B01B78002B42D0234E244F32685442AE
:1009300054413A68E4B255425541EDB2002C34D1ED
:1009400003A8FFF7DEFF05280AD0002804D0211CE9
:10095000221CFFF793FB04E003983368984700E0FC
:100960000124002D1ED1164B03A91B880B80154BAB
:100970001B68181C0193FFF7C8FF051E052D0BD03F
:10098000002805D000210A1CFFF778FB002504E0B1
:1009900001983A68904700E00125002CCED0002D48
:1009A000CCD004E0002C02D1C8E7002DDBD005B08C
:1009B000F0BDC046DC230020E4230020E823002013
:1009C000DE230020E023002038B5041C0720002986
:1009D00013D08D0711D1094801600949201C0A80F4
:1009E000084A09491360FFF78EFF002805D1074B1D
:1009F000012216201A70FFF782FF38BDE023002085
:100A0000DE230020EC2300200F090200DC2300205D
:100A1000002803D0024B1860002000E00E20704731
:100A2000E8230020002803D0024B1860002000E0DB
:100A30000E207047E423002008B5074B1B68002BED
:100A400007D09847002806D000210A1CFFF716FBA4
:100A500001E0FFF763FF08BDEC2300207FDF704754
:100A600082DF7047A7DF7047A9DF7047AADF7047B2
:100A7000002070470020704700207047002070471A
:100A8000002070470020704700207047F7B5041C15
:100A90000F1C6A468178224801F086F900283DD172
:100AA00062780C214A431F4B9A18927A530605D458
:100AB000022F03D0012F03D11B4D02E01B4D00E09C
:100AC0001B4DA1781C2671431A4B68465918321CDD
:100AD0000023A847002813D1022F1FD063780C22CF
:100AE0005343104A4021D3189A7A68468A439A722F
:100AF0006178114B7143321C5918331CA84701E02F
:100B0000022F0BD023780C2253430C4A6846D3188B
:100B10009A7A0B4B9200D358211C9847F7BDC046D8
:100B20004C2500202C240020F91D0200791E020013
:100B3000710A020038240020FC2400203C250020FB
:100B400074580200F7B50190437824215943264A8E
:100B5000264F50184468002C0FD00C2058433818EA
:100B6000807A45B2002D07DA450605D40E1C0836FA
:100B7000A5B296198C5802E00024251C261C0C22D4
:100B80005343FB181889311C2A1C231CFFF76CFFE8
:100B90000B280BD1019A311C53780C225343FB18BC
:100BA00018892A1C0123FFF75FFF0124002800D0C9
:100BB0000F48012C17D1019D0C216B780D4A4B4336
:100BC000FB181889FFF74EFF00280CD00A4B9842FB
:100BD00008D0082806D0094B984203D0112801D02C
:100BE000002000E00248FEBD182500202C24002033
:100BF00041800000FFFF00000230000004300000D0
:100C000008B5FFF79FFF08BDF0B58BB06D460A35FC
:100C10001A23019000912B804B780C214B43234ADF
:100C200003A9D31818892A1C0323FFF71FFF0028E4
:100C300039D1009B242658781D4F7043083003A9F2
:100C400038182A8804F02AFD00993C1C4B780028AB
:100C50000DD10C225A4315498A18917A022211406B
:100C600021D17343321CF81804F030FD1BE05E43C1
:100C7000BE197268002A01D00E4F00E00E4F2426E4
:100C800073430322E2502A88E11808334A60E018CF
:100C900003A904F012FD009A01985178382371439A
:100CA000321C6118B84700200BB0F0BD2C24002086
:100CB00018250020791E0200F91D020008B5FFF773
:100CC000A3FF08BD70B5031C487824246043094D78
:100CD0000E1C2818191C221C382301F00DF90028BD
:100CE00006D173785C432D196B68013300D16860BD
:100CF00070BDC0461825002008B5FFF7E3FF08BD0A
:100D0000F0B51C1C4D4B161C1A6893B00190009155
:100D10001F1C002A00D18FE01898742800D98BE09E
:100D200003ABFF22002569465A709A70DA701D7075
:100D30000D760B940A90A9B2414804AA01F034F848
:100D4000002809D1019804A9082204F0A7FC002872
:100D500002D103AB9D7002E00135072DEBD103AD4D
:100D6000AA78FF2A68D0009806AB042806D1189C00
:100D70002022742C00D040221A7046E03149611ABA
:100D8000C32910D83049002E04D101200C689040AE
:100D9000044251D001209040021C08689043202258
:100DA00008601A703EE02949611A1B2908D82022E0
:100DB0001A7000236B700CAB0B9318230A9331E06D
:100DC0002348211A23290FD8302369460B760023A4
:100DD0006B700123EB701F4B997A0223194021D1CC
:100DE000242204F073FC1DE0402119701A4B9C4230
:100DF0000BD01A4B9100CB58A3421DD1154BDB7A77
:100E000093420FD100236B700CE006AB1A780321DC
:100E10000A431A7009AB0793281C3B6806A9321CC9
:100E2000984709E0009C06AB032C02D11A780121F7
:100E3000EEE71A780221EBE713B0F0BD3C25002065
:100E40004C2500203824002048250020FC240020C8
:100E5000182500202C240020A4580200F023002094
:100E600070B51C2444430F4E051C30190021341961
:100E70000622113004F02AFC201C0021102204F06C
:100E800025FCFF232374A37601235B422383064BB7
:100E900001221968AA4091431960044BAD00002259
:100EA000EA5070BD3824002048250020F02300209F
:100EB00037B581B2051C6A46074800F075FF041E6D
:100EC00008D16846742101F05FF8041E02D1281C85
:100ED000FFF7C6FF201C3EBD4C250020F0B5051CC9
:100EE00085B0002855D02C4B00242C481C605C7227
:100EF0009C72012383725B42211C07220381C3720F
:100F000004F0E4FB2648211C242204F0DFFB201C13
:100F1000FFF7A6FF234BFF22E2540134072CF6D142
:100F20006A46214F74239380204B6846391CD48035
:100F3000009300F0BDFE3E1C00282BD11C4B2C78EA
:100F400001221A701D1C002C1AD1A1B2301C02AA59
:100F500000F02AFF071E0CD11C22131C6343154806
:100F600002A9C0183B1C00F0C7FF002804D02F7056
:100F700010E000232B700DE00134072CE5D109E0CF
:100F80006A46D1889388381C594389B200F0FCFF27
:100F900000E0094805B0F0BD3C2500202C240020CD
:100FA000182500200C2400204C250020010D0200F3
:100FB00013240020382400200E800000F8B5174BC1
:100FC000071C1B780D1C002B22D0002822D00029E2
:100FD00020D00B68002B1DD0114C2668002E1BD191
:100FE000201C08C00531052204F067FB207A2B790C
:100FF000012188430222A3721043042398432072E4
:10100000E07901430A439A43E271301C3E7004E0E8
:10101000044802E0044800E00448F8BD132400201E
:101020003C250020088000000E80000004800000A5
:101030007FB52D4B051C1B780C1C002B50D00028B5
:101040004AD0002948D08A68002A45D00378002B6E
:1010500046D1264B1B68002B42D0817806293DD80B
:101060001C234B43224AD3189B7EFF2B36D0437858
:101070000C2253431F4AD3189B7A1A0730D5636852
:101080000720032B2DD91C4802AA00F08DFE002852
:1010900027D101A802A90422602300F02DFF002817
:1010A00002D1019A013201D1144E00E0144E211DEB
:1010B00002A804226023B047002812D102A8A16828
:1010C0001022642300F0D8FE00280AD1AA78A16873
:1010D0000C4B9200D15004E00B4802E00B4800E0BA
:1010E0000B4804B070BDC046132400203C250020EE
:1010F000382400202C2400204C250020F91D02005B
:10110000791E0200F02300200E80000010800000F5
:10111000088000001FB5244B0C1C1B78002B3CD012
:10112000002838D0002936D00378002B35D11F4B4A
:101130001B68002B31D08378062B30D81C225A43F1
:101140001B498A18927EFF2A29D0A168194A9B0060
:10115000002902D1D358A36000E0D150817802AABF
:10116000154800F021FE00281CD101A802A9042284
:10117000602300F0C1FE002813D1019B013310D081
:10118000A06802A91022642300F0B6FE002809D14D
:10119000019B636006E0094804E0094802E0094851
:1011A00000E0094804B010BD132400203C250020B5
:1011B00038240020F02300204C2500200E80000061
:1011C0000880000010800000408000001FB51D4B0B
:1011D000041C1B78002B30D000282CD00378002B67
:1011E0002BD1194B1B68002B27D08178062926D8D4
:1011F0001C234B43154AD3189B7EFF2B1FD014484A
:1012000002AA00F0D1FD00281AD1602301A802A98A
:10121000042200F071FE019B013311D002A80D4998
:101220000422602300F028FE002809D1A2780A4B8E
:101230009200D05004E0094802E0094800E0094863
:1012400004B010BD132400203C25002038240020C9
:101250004C250020A4580200F02300200E8000003E
:1012600008800000108000000A4B1B78002B0ED075
:1012700000290AD0002808D00078002807D1064BA2
:101280001B68002B03D0087002E0044800E004480B
:101290007047C046132400203C2500200E8000002B
:1012A00008800000194A031C127810B5081C002A97
:1012B00028D0002B24D0002922D01C78002C21D14A
:1012C000134A1268002A1DD09A78FF2A0AD15B7847
:1012D000FF2B19D00C214B430E49C9188B7A9A0762
:1012E00012D508E01C214A430B49022389188C7E41
:1012F0001C4009D11031072204F0DFF9201C04E062
:10130000064802E0064800E0064810BD132400200D
:101310003C2500202C240020382400200E800000D2
:101320000880000005800000F0B5244B8BB01B78CE
:10133000051C0C1C002B3CD0002838D0002936D0CE
:101340000378002B35D11E4A1268002A31D08278EA
:10135000062A30D81C2672431A498A18927EFF2A20
:1013600029D0E360827803AF72438A182261164A5B
:1013700063616260A3602760817801AA134800F06E
:1013800013FD002818D1381C01A9321C331C00F0B1
:10139000B3FD002810D1E060AB780B495E43094BE8
:1013A00060619E1926616160A060276004E00848C2
:1013B00002E0084800E008480BB0F0BD132400200C
:1013C0003C25002038240020142400204C25002037
:1013D0000E800000088000001080000013B5041C7F
:1013E00081786A460B4800F0DFFC002810D1607855
:1013F0001C235843084A694610181A1C00F07CFD4B
:10140000064B68469A7A064B9200D358211C98479F
:1014100013BDC0464C250020FC2400203C250020A4
:1014200084580200F0B5C14A8DB01278FF23061C23
:101430000193002A00D1A8E1BD4A1168002900D11A
:10144000A3E102AD03AF6B70AB70EB70031D7B606B
:101450002A233B81338800202870B64C102B21D0E2
:10146000A27AB188900707D5B348814200D13EE106
:101470002089884200D13AE1172B00D1A5E007D896
:10148000132B52D0142B2BD0112B00D07DE10EE06A
:101490001C2B00D111E1522B00D106E1182B00D0FA
:1014A00073E1DDE0A37AD90700D525E16DE10223E0
:1014B000101C9843A072110707D543B2002B0BDA1A
:1014C000281C0021FFF7E2FA06E0A878FF2803D0E5
:1014D000FFF7C6FCFF23AB701023A3721223EDE0CD
:1014E000E37A964FFF2B15D1F18900231C20584336
:1014F0003818008B88420AD1082101930A43DBB2D5
:10150000E372A272281CAB70FFF768FF02E00133A0
:10151000072BEBD1E37A0021FF2B00D08849B0885C
:101520003A1C0023FFF79CFA2FE13B7004231A4377
:10153000E37AA272FF2B22D100271C2078437F4A36
:101540001018837EFF2B15D12278031C1833022A32
:1015500007D0FD229A70211C0722103004F0ADF84C
:1015600001E0FE229A7001AB1F700198C3B2AB700C
:10157000E37210E00137072FDFD1724C0CE07248A4
:1015800016231A22083000213B7004F09FF8A37A3A
:1015900040221343A37200240021664B0991DB7A99
:1015A0001C225343654A0B91D3180A93644B604A3B
:1015B000069307910891B088043206ABFFF74EFA04
:1015C000002800D0E1E0221C7AE059480121437A4A
:1015D0008B43437204239A431423A2723B70B37962
:1015E000002B04D0E07AFFF763FCB27968E0F3796E
:1015F000590764D5AB78FF2B61D008210A43F17AF3
:10160000A2728907C90F012906D11C225A434B48EF
:101610008218907E88439076E27AFF2A4FD0217814
:10162000464A1C2602290CD05E439619301C07221C
:101630001030211C04F041F8B37E02229343B376AC
:1016400009E073433E49D318498A1A1C19839B7ECB
:1016500001218B439376281C0121FFF717FA2EE016
:10166000B379112B13D1130711D537481A2208303B
:10167000002104F02BF816233B70A37A6022134359
:101680002B48A372437A02221343437217E080234C
:101690005B421A43264915233B70A2728A7A2B4B70
:1016A0009200D358281C984709E0214B281C9A7AAD
:1016B000264B9200D358984767E013233B700022D3
:1016C0001B4803AC0368211C281C98472378122B65
:1016D0005BD11848837A012B57D0012383725B4278
:1016E0000381C3720021072203F0F0FF4DE0E17A8D
:1016F000A97000216970BFE6112300213B70697059
:10170000B388B71D23810223A372201C391C072232
:1017100003F0D3FF337D0026DA071ED50C4A5B08A1
:10172000D35CFF2B25D0019323E0C0461324002077
:101730003C2500202C240020FFFF0000382400203E
:10174000FC2400204380000018250020945802004B
:101750000C2400200136072EB1D01C2373430C4803
:10176000391C1030C018072203F098FF0028F1D16F
:101770000196019A0821D3B2A27AE3720A43A272B7
:10178000281CAB70FFF72AFE99E70DB0F0BDC046EC
:101790003824002030B5002912D00A78002A11D14F
:1017A0000A4B1B68002B0DD0FF23094C8B70258939
:1017B0000523854207D14A70E37A8B70131C02E03F
:1017C000044B00E0044B181C30BDC0463C250020F3
:1017D0002C2400200E8000000880000008B5074B74
:1017E0001A6880235B05002A06D01969F02089B2A7
:1017F000800202F033FA00E0586908BD00200020A2
:1018000029DF704728DF704737B58B680D78021CD9
:101810001C01081C0B694988083000910249645872
:10182000291CA04737BDC04620260020F0B5504CEB
:1018300085B002932378051C0191161C002B06D15C
:10184000029B134301D1022300E00123237023787C
:101850000320013B052B00D987E0181C02F0A6F9F4
:10186000031827405F73FFF7B9FF80235B051D69ED
:1018700019691A69431EA8B25843019B89B292B2F2
:1018800059439208FFF7BCFF022300286CD06CE09C
:101890000198FFF7B7FF002867D10323002E63D11B
:1018A000029A002A1AD12B78042B36D15BE08027CC
:1018B0007F053B690393FFF791FF039A396993B260
:1018C000019A0138534389B24143321C181CFFF777
:1018D00097FF002849D1029B002B1BD0042343E033
:1018E00080277F053B69019A9BB253436A88B60003
:1018F0009B189B190193FFF771FF3969013889B271
:1019000041436B880198F6187118029AFFF778FF27
:1019100000282AD12B78042B13D0052324E0802320
:101920005B051869019A80B250436A88B3001818A1
:1019300029699208FFF764FF002816D1029B1E4315
:1019400011D0062310E0FFF749FF80235B051A69D9
:101950001969431E90B2584389B202F031F9FFF77A
:1019600051FF002801D10723237005B0F0BDC04608
:1019700039260020F8B5324E142233785343F31839
:101980001C1D1B79E568042B18D0052B39D00F20BE
:10199000022B54D12B4B62881888236980021918B6
:1019A000A388121A5D19284B28189A4201D8920868
:1019B00001E080225200FFF723FF3CE0A2682349A8
:1019C0001301CB18198958895B6880277F05AB42C2
:1019D00003D141436388994201D0022A0AD139696F
:1019E000281C89B202F0ECF8164B1B88C018FFF7D0
:1019F00009FF20E03969281C89B202F0E1F8011CD6
:101A000009E080277F053969281C89B202F0D8F8DF
:101A1000A388011C5D193A693B6992B2481C4A438C
:101A20009BB243436088AA1A45195B1B92089B0826
:101A3000201CFFF7FBFE002801D10123B370F8BD85
:101A4000542500203A260020FF0300002026002015
:101A5000F8B5144D061C6C7806A8078804200A2CDB
:101A60001FD028782418E4B2092C01D90A3CE4B22A
:101A7000142044432C1962610020221C26716071DD
:101A80000C3241C941C2E3802781AB78002B01D0E1
:101A9000002003E0FFF76EFF1128F9D06B780133C7
:101AA0006B70F8BD5425002008B5094B00205A780A
:101AB00082420CD09B78834209D1FFF75BFF00285C
:101AC00005D0031C113B5A1E93415B42184008BDD0
:101AD00054250020F0B54D4987B08B780C1C002BA5
:101AE00000D190E04A4D00232A788B70082A06D155
:101AF000022801D12B7067E0464A137064E0022887
:101B000002D003286AD07EE00D7814206843049543
:101B1000414D08182E88011D01360079B6B2B44631
:101B20002E80009002280AD16746BE02488801969E
:101B3000019FF517C60F87426E41059608E0009891
:101B4000052804D1D51F6E427541059301E0059328
:101B50001D1C009B042B0AD1D31F584243414888C7
:101B60006746BE02864205DB5042424103E0002345
:101B70001A1C00E00022002D07D1002B05D1002AFD
:101B800003D10598012318421ED0214A224D00237B
:101B900013702B806378013B6370049B0133DBB2CD
:101BA000092B01D9049B093B00202370FFF72CFE71
:101BB000049E142373430022E31801201A71DA8073
:101BC000D8601A615A611A81FFF76EFF00281AD097
:101BD0002378142159436418211D12E00B78142432
:101BE0005C430C19043463780D200133DBB263705D
:101BF000032B05D0FFF7BEFE002804D0112802D029
:101C0000211CFFF701FE07B0F0BDC046542500209F
:101C100039260020382600203A260020F8B51D4A33
:101C20001D4E0023138033707370B3701A1CB318E9
:101C30000024012514321C71DC80DD601C615C61B4
:101C40001C81C82AF3D1154B80271C80FFF7C6FDE5
:101C50007F053A69831E90B25843114B08221860E1
:101C6000104B1C601C819C815C810F4B1A70FFF72C
:101C7000B5FD3A693969431E90B2584389B201F003
:101C80009FFFFFF7BFFDA04202D1084BB5701D704A
:101C9000F8BDC0463A2600205425002030260020FA
:101CA0003426002020260020392600203826002057
:101CB000F0B5394B85B01B78051C02910820002B2C
:101CC00068D0002D65D0002963D02868002860D036
:101CD000802464052269AB8892B2934201D907201F
:101CE00058E00F2BFBD9EF88002FF8D05F432B4E25
:101CF000316801917F18FFF771FD2269431E90B290
:101D000058438742EBD8AE88EF88321C7A43236968
:101D100003929BB29A4207DD2069311C80B201F028
:101D200093FF89B20029DAD1032131408C46D6D104
:101D30001B4B04201B88012B2CD002980199194CB5
:101D40001A01416003602D68A018416013491551C4
:101D50000681478103980E68614680256D052F69CD
:101D60000131BFB289B2B84203D92F69BFB2C01BDB
:101D700000E000202D69ADB27519002801D02E1C9D
:101D8000EBE7A218054E9181054A013335601380B7
:101D900000E00E2005B0F0BD3826002034260020DB
:101DA0003026002020260020114B30B51C78082357
:101DB000002C1AD0002815D0002A13D00368002B5D
:101DC00012D10C4C2568002D0ED02589406869433E
:101DD00009186089454360682D18A94204D2136030
:101DE000516002E00E2300E00723181C30BDC046FE
:101DF0003826002020260020F0B5141C1C4A051CA3
:101E0000127885B00F1C0820002A2ED000292BD074
:101E1000002D29D029680720002926D1154E3268C7
:101E2000002A22D06968039132897189766851430A
:101E30008C4603996644B14217D2002C15D09442C7
:101E400013D8E618964210DC0322102017420CD15A
:101E500013420AD1114208D10093291C3A1C231CB9
:101E60000220FFF7F5FD00E00E2005B0F0BDC046F2
:101E70003826002020260020F0B5141C1C4A051C22
:101E8000127885B00F1C0820002A2ED000292BD0F4
:101E9000002D29D029680720002926D1154E326847
:101EA000002A22D06968039132897189766851438A
:101EB0008C4603996644B14217D2002C15D0944247
:101EC00013D8E618964210DC0322102017420CD1DA
:101ED00013420AD1114208D10093291C3A1C231C39
:101EE0000520FFF7B5FD00E00E2005B0F0BDC046AF
:101EF0003826002020260020F0B5161C204A85B088
:101F0000127802900D1C0824002A36D000292FD008
:101F100000282DD00C68002C2CD11A4F3A68002ACA
:101F200028D04A6878893989484384467868844447
:101F300062451FD2002E1DD08E421BD8F018884259
:101F400018DC02980321084216D10B4214D111402B
:101F5000039111D19918321C03F0AFFB2A68009647
:101F60001301FE58281C0321039A029BB04704E08A
:101F70000E2402E0072400E01024201C05B0F0BD70
:101F80003826002020260020154B73B51B78041C32
:101F90000D1C0820002B22D0002C1FD02268072007
:101FA000002A1CD10F4A1368002B18D056681189DB
:101FB000528963684A439219934210D210209A07BB
:101FC0000DD1981B01F040FE07200A1E07D1009199
:101FD0002B1C211C0420FFF73BFD00E00E2076BDEA
:101FE00038260020202600202EDF704732DF704781
:101FF00033DF70474CDF704708B5054B01201A7876
:1020000050401870034B1B68002B00D0984708BD48
:10201000402600203C26002038B50C4B051C15201E
:102020000C1C1A60FFF7E2FF00280ED11520291CB6
:10203000FFF7DEFF002808D11520FFF7D5FF0028A5
:1020400003D10320211CFFF7D5FF38BD3C2600201B
:10205000A0DF7047A2DF7047A5DF7047A6DF70479B
:10206000A8DF704763DF7047F0B599B00290039125
:10207000002800D10BE1002900D108E14A680E24B4
:10208000002A00D104E101235B420380824910222F
:1020900008A803F012FB814B694606AD08A81A3167
:1020A0002B80FFF7DFFF041E00D0F1E0029A012031
:1020B0000432291CFFF7CCFF041E00D0E8E0AB7807
:1020C000029A11AD9371211C1C22281C03F0FEFA08
:1020D0002B7804221343029A6C60EC602C616C61D3
:1020E000AC612B7093796A4693776D4B05AF938300
:1020F000211C0322381C03F0E9FA00233B70012263
:10210000102313437B70BB780622934302221343B0
:102110000822934310220CAE934301221343211C47
:102120001422301CBB7003F0D1FA07AB0C931422BD
:10213000029B34817481B281346177609888291C54
:10214000321C0833FFF786FF041E00D0A0E0211CDC
:102150001C22281C03F0BAFA2B7808221343102201
:102160001343029A6C60EC602C616C61AC612B7063
:1021700093796A4693774B4B211C9383381C032237
:1021800003F0A4FA00233B707B780F2293430122D3
:1021900013430F221340102213437B70BB78062297
:1021A0009343022213430822934310221343012234
:1021B0001343211C1422301CBB7003F087FA07ABB9
:1021C0000C931723B381029A029B3481748134618A
:1021D00077609088291C321C1033FFF73BFF041EE8
:1021E00056D1211C1C22281C03F070FA2B780222E5
:1021F0001343029A6C60EC602C616C61AC612B70D3
:1022000093796A469377284B211C9383381C0322C9
:1022100003F05CFA3B780F229343012213430F2211
:102220001340102213433B7000237B70BB780622BF
:102230009343022213430822934310229343012223
:102240001343211C1422301CBB7003F03FFA0222FE
:102250003281B28107AB039A3360029B7481326191
:1022600077609888291C321C2033FFF7F3FE041E88
:102270000ED1039A029B52689A62039A9368002BCC
:1022800001D0029AD362094B01221A7000E00E2499
:10229000201C19B0F0BDC046A8580200301500003F
:1022A00032150000311500003415000041260020D1
:1022B000F0B5051C87B0002824D00488134B0820F3
:1022C0009C4220D0124B1B78002B1CD0114E02AC2C
:1022D000102371706F460321F980B270201C1A1C04
:1022E0000021337003F0F2F92B8A06372380012393
:1022F000A37028880023211CA380A760E660FFF755
:10230000ADFE00E00E2007B0F0BDC046FFFF0000AC
:102310004126002042260020F0B5041C89B00E1C86
:10232000002800D1AFE0002900D1ACE0826A002A89
:1023300000D1A8E00B88112B18D004D8102B00D0A6
:10234000A1E08B8814E0502B02D0512B12D09AE0E0
:10235000C9880389994200D095E004A908230B702D
:10236000F38B20360B718E6090478CE001235B422B
:10237000238088E08A79022A00D084E00A89038ACF
:102380009A4200D07FE08B7A043B022B00D87AE09F
:1023900001AD022204AF3A7000210822281C03F08C
:1023A00095F9022300AA2B806A6000232088A18A65
:1023B0002A1C6B80FFF750FE002804D0E36A002B34
:1023C00005D0984703E06A461378DA0707D4FE235E
:1023D000FF332088391CBB80FFF742FE4DE0B880F8
:1023E000391C2088FFF73CFE002846D1F31CD97F1A
:1023F000481E07283DD801F0D9FB040E1B1D1F21E4
:102400003A2300232B70338C012B02D8201C01218E
:1024100008E0012308E001232B70328C9A4203D894
:10242000201C0221062226E023362B71AE6019E023
:10243000022316E0032314E0042312E0052310E036
:10244000338C022B02D8201C082113E0731DDB7F84
:102450000436F27F1B021343AB8001D1072300E057
:1024600006232B70A36A201C291C98470BE0092324
:10247000F7E7201C0322FFF71BFF002803D0E36AC5
:10248000002B00D0984709B0F0BDAADF704744DFA9
:10249000704711DF704713DF704700DF70477047E8
:1024A000F0B50D788DB0002D00D08FE04D4C078831
:1024B0006A4606320823211C138034310123381C5C
:1024C000FFF7E3FF484B1B689847B120FFF7DFFF9A
:1024D000002803D0291C2A1CFDF7D0FDFFF7D9FFE7
:1024E000002803D000210A1CFDF7C8FDF02080025F
:1024F000FFF7D1FF002803D000210A1CFDF7BEFD25
:102500003A4E0023381C311C0293FFF743F9051E95
:1025100046D1364806A9FEF707FF071E2DD10A9DB2
:102520000722291C1031201C03F0C7F8291C102297
:10253000E01D03F0C2F8069D201C291C1122183052
:1025400003F0BBF8201C291C2A3012310A2203F0A8
:10255000B4F8201CFFF7A1FF002803D0391C3A1C57
:10256000FDF78CFD012302930423049303A902AB1E
:102570001E480593FEF75CFD0CE0301C211CFEF7A5
:1025800091FE002803D0291C2A1CFDF777FD201C92
:10259000FFF783FF002803D000210A1CFDF76EFD22
:1025A000134B8021C022C90352009950196800239F
:1025B00001229A40114201D00E48C2670133202BFC
:1025C000F6D1F020800200F02FF809E0012103226B
:1025D000FFF76EFE002803D000210A1CFDF74EFD18
:1025E0000DB0F0BD4A260020A02000208626002045
:1025F00000E100E004E100E0014B18607047C046D4
:10260000A020002007B56B46D8710733181C054978
:10261000FEF72AFE002803D000210A1CFDF72EFD3C
:1026200007BDC04686260020056885F308884668F1
:102630000022EFF305839A42301C02D1084CA646D3
:102640003047074C064D061C064FF0B40024002509
:1026500000260027F0B404480047C0467047000039
:10266000FFFFFFFF00000021F9FFFFFF76DF70474B
:10267000A0DF7047A2DF7047A4DF7047A6DF704776
:1026800063DF7047074B1B681B185B785A0701D53F
:10269000303805E003221340012B00D12030573899
:1026A000C0B2704774210020F7B5071C0C1C0192C2
:1026B000051C019A7B1B934218DA237800262D3BD8
:1026C0005A425341E4182078B04204D0FFF7DAFFB1
:1026D00006010134F6B22078002804D0FFF7D2FFBB
:1026E00006430134F6B2EE73013DE2E7F7BD0000A8
:1026F00038B50B880C1C112B05D0502B07D0102B94
:102700002AD18B8801E001235B42438424E08B1DA6
:10271000CA88418A914208D1104A002A1CD0201C44
:102720002030198BFCF77CFD16E0418B914213D1D0
:102730000B4A9D7E002A06D1012D0DD1A0881321C0
:10274000FFF794FF08E01A8B211C013A281C213165
:1027500000E000BF0028EFD138BDC04621F20100E3
:1027600000000000F0B501235B424384A74B91B009
:102770001A78051C012A04D1A54B0270438002710E
:1027800017E009AC032A16D1A24B201C19681022AD
:10279000FFF78AFF637B227B1B0213436B80201CA5
:1027A000291CFFF76DFF002800D02AE12B782B7140
:1027B0006B88EB8020E001230370022A09D1954B3E
:1027C000201C1968FFF770FFE37BA27B1B021343F9
:1027D00000E0914B6B80201C90491022FFF764FFB2
:1027E000637B227B1B021343EB80291D201CFFF718
:1027F00047FF002800D004E12B7802A98B706B887A
:102800002A1C012008320B80FFF732FF041E00D083
:10281000F8E0211C0322684602F058FF0122102331
:1028200013436A4613700122102313436A46537000
:10283000937806229343022209AE13436A469370AB
:10284000211C1C22301C02F041FF3378022213436A
:1028500010221343337000AB73612B796A46937374
:10286000EB88211C0133938101A803227460F4607A
:102870003461B46102F02AFF0122102313436A4637
:102880001371002353719379062293430222134359
:102890000822934310229343012204AF13436A4654
:1028A0009371211C1422381C02F010FF03AB049317
:1028B00001AA14237A603C817C81BB813C612B1C82
:1028C0002889311C3A1C0A33FFF7D4FE041E00D0BD
:1028D00098E0211C1C22301C02F0F8FE33780822FC
:1028E00013430422134333702B796A469373EB88A6
:1028F000211C0233938101A803227460F4603461C7
:102900007461B46102F0E2FE6A46002313715379E8
:102910000F229343012213430F221340102213432B
:102920006A46537193790622934302221343082285
:10293000934310229343012293436A469371211CCF
:102940001422381C02F0C2FE03AB049301AA142324
:102950007A603C817C81BB813C612B1C2889311CC5
:102960003A1C1233FFF786FE041E4BD1211C1C2299
:10297000301C02F0ABFE33780822134304221343C9
:1029800033702B796A469373EB88211C0333938150
:1029900001A803227460F46034617461B46102F0D0
:1029A00095FE6A460023137153790F229343012247
:1029B00013430F221340102213436A465371937935
:1029C0000622934302221343082293431022934387
:1029D000012293436A469371211C1422381C02F091
:1029E00075FE03AB3B6001AA14237A60BB813C8176
:1029F0007C813C612B1C28891A33311C3A1CFFF75F
:102A000039FE041C201C11B0F0BDC046FB22002082
:102A1000202200000423002084FEFFFFB85802009B
:102A200070B586B0141C051C08220E1C68460021D7
:102A300002F04CFE00236A465380231C142C00D95C
:102A400014236A4613806989688C0196FFF714FE87
:102A5000011E18D16A8C0D4B9A4214D002AC102280
:102A6000201C02F033FE6B896A4623800123A37089
:102A70005388019AA38000ABA360E260211C688C9C
:102A8000FFF7FCFD011C081C06B070BDFFFF000035
:102A900030B51F4B1F491A6EA1201479C0000C508D
:102AA00054791D4800250C50012008601B4C586EBD
:102AB00008519479017D2143C174A224184964000E
:102AC0000D51141C926808341C66541C02D0154B1E
:102AD000CA5030BD1A1C1830483290420BD8586684
:102AE0009A6E82420AD01A1C6C321A66D96E0C4A4F
:102AF0000C4BD150EDE75B66181CF1E7094B084A17
:102B00000121D150084B094A5B6D1A62E1E7C046CA
:102B10008C26002000100040540500000405000031
:102B200000800040440500000C270020D12D020049
:102B3000444B86225200002130B59950424A2C2045
:102B4000105C022800D030BD8020C000185800283A
:102B500074D03E4803251858C47C2C40857D032C36
:102B60002AD0384BA921C900595849420175384922
:102B700059580183A121C9005B580B214D1B6100ED
:102B800064184375291B936CC9B25943314B3248C1
:102B90005B6D1862D36C314AC91A314B99500122CE
:102BA000DA600021A222520099508021C0232D4AD0
:102BB00049005B00D150C6E7022DD2D188246400C1
:102BC000195101211961A921C900595849420175BA
:102BD0001F4959580183A121C9005D58457530200E
:102BE000105C58503421505C1F495850201C195813
:102BF0000029FCD0134B012159601649936B081C26
:102C00001C33903158308B4200D9031CD16B994250
:102C100009D00E490B48936380244350802111480A
:102C2000640349004450546C0120002110649975DC
:102C30000A4A0B4BD03C9C50D860B3E701229A6003
:102C400081E7C046001000408C27002004050000EA
:102C50000C0400000C2700206D2C0200440500002D
:102C60000080004000E100E0540500002749A22256
:102C70005200002330B58B50254A2C21515C02298B
:102C800000D030BD2348882149004350012303610F
:102C90003023D45CA123DB00C4503423D45C1E4B0E
:102CA000C4504358002BFCD01A4B012159601B49DA
:102CB000936B081C0C1C1C3390305834834223D86F
:102CC000D06B984209D01648124C9363802523504C
:102CD0008020144C6D0340002550556C00200124C9
:102CE00098751464094B104AD03D9D50A2225200A1
:102CF000DC6098500B4A8020C0235B004000D0501D
:102D00004B6D0A4A1A62BCE7231CD9E700800040D9
:102D10008C27002000100040540500000C270020E4
:102D20000405000000E100E044050000312D020030
:102D3000A222214910B552000023204C8B502C2296
:102D4000A25C022A00D010BD1D48882149004350D2
:102D50000123036143581A4A002BFBD0236C211C2A
:102D60003031C85CA121C9005050211C3431C85CED
:102D70001449505001215160134952589375013341
:102D80002364012B0CD0022B06D00122032B0AD086
:102D90000E4B0949CA50D6E7626C5200D03AF7E7A9
:102DA000626CD03AF4E7636C1A1CD03A5B00D2181C
:102DB00000232364ECE7C046008000408C270020FD
:102DC0000010004054050000040500004405000008
:102DD000F0B52E49882200234F4646465200C0B423
:102DE0008B5001230B618B582848002BFBD0284CBB
:102DF0002C220025A554274B9046A22252009D501C
:102E0000254A0121566E976E5960D960BE4215D091
:102E100040462154101C6C301066D06E1F4A9850EA
:102E20000120A9224042D20098501D4A1D48526DEF
:102E3000106219600CBC90469946F0BD5022A75C08
:102E4000002FF7D0164FA5545822D219E263A2637F
:102E5000914602264246A654134E4A4682511226F5
:102E60008022FF36920086507A6D104E5660104ECA
:102E70001662862252008550C12292000826865092
:102E8000064A256499501960D4E7C04600100040F6
:102E90008C270020008000408C2600204405000084
:102EA0000C270020912A020004050000312B0200AB
:102EB000312D0200142318687047C046F8B52D4C18
:102EC0005123E55C071C0023002D01D1181CF8BD1F
:102ED000294D606DAB6E2A1C1E1C18364832964276
:102EE0002DD86A6EB24243D08A001A750F2218603C
:102EF0000A40181D391C02F0E0FB2C23E25CAE6690
:102F0000022A1ED02C22A15C01230029DED11B48FD
:102F10008021890003264650A3542A1C6C322A665D
:102F2000E86E174A174950500120A9214042C900B4
:102F3000505015491548496D08621360C6E72E1CAC
:102F4000CFE700200D498822E05452000123885029
:102F50000B618B58002BFCD0084AC2239B00082130
:102F6000D150074A01235360D3605022A354C9E7CC
:102F70000023ABE78C2700208C26002000100040A7
:102F800000800040440500000C270020912A020028
:102F90001E4B51229A5C10B5002A36D02C22995C27
:102FA000022932D0995CC9B201290BD150201C5C96
:102FB000002C2AD11954995C012926D09A5C1C5402
:102FC000022A22D0124802242C229C54011C114AAD
:102FD000114C5831D9639963115112248021FF3467
:102FE00089005450416D0D48082448600C4808621F
:102FF0008620002140001150C12080001450196427
:10300000084B094901225A501A6010BD8C27002034
:103010000C2700200010004004050000312B0200A6
:10302000312D02000080004044050000F0B55F46ED
:1030300056464D464446F0B410231A68E34B83B01D
:103040009A4201D0FCF794FDE14D29684B1E012BFB
:1030500000D9FEE72B790422181C90430FD05AB2F6
:10306000141C08340BD040B2103008D010201E1CA5
:10307000864370B2143002D01E3200D0FEE7AA6838
:10308000501E022902D00B2802D9FEE71628FCD8D0
:10309000D0480068002800D0CEE1CF4CA66D002EAD
:1030A00000D177E1181C884614231B680121636551
:1030B0008B46CA4BCA495D465D50CA4934255D50AE
:1030C000C94DCA4900265D50C949CA4F5E50A32167
:1030D000C9005F50C84902275F50C84DC84940B277
:1030E0005951C8498C46A721CD0066465E51C64954
:1030F000C025AE008D59B446C44E354066468D514C
:103100000F60A621C9005D465D50C14900265E5092
:10311000A221C90045465D50BE495850022D00D13C
:1031200030E1D501AD1A6D00EDB22E1C1A363435E2
:10313000F6B2EDB23022A654321C231C3732D2B282
:103140003033301C91469A705D7000F08FFA342352
:10315000E054071C281C00F089FA251C34356870DF
:10316000484600F083FAAC49A870AC4D012000231A
:103170006860E8606B50A221C9006B50A1218246B3
:10318000C90003206850A049C22080000A58834625
:10319000FF20824358460A5080204000086080206B
:1031A000C1218002890068508021524689006A50FE
:1031B000A8224046D2009046012800D1D3E0984A88
:1031C00040462A502C22A354502228580321A354AD
:1031D00000F0F6FC4146606468580C2100F0F0FCF9
:1031E0006023E3648D4AA823DB00A064D0580C213F
:1031F00000F0E6FC8B4B011C1A1C6C32002516718A
:1032000095710120A846261C4D1CD86657715D6734
:103210003036AA4675788A441573AC4634252D1984
:103220006F78A9464546957355465773DD67B6785E
:103230008A44019616754E46B678454656750096F0
:103240008426B0469575564645465E513025665DE6
:103250003425B1461677665D5546B0465677907769
:103260008C266A189A5165469026F5549126922527
:10327000F754E85452189426019D9A519826F55413
:103280005218009D92469926F5549C2255469D5011
:103290009A261A1CF054A0324E4616701A1C454647
:1032A000A1321570A42502228A44AB46A226F2540C
:1032B00055465E469D51A8266546F554A926F75405
:1032C000AC268A44AA25B346EA5456465D465E516A
:1032D000019EB025EE54009EB125EE548A44B225DD
:1032E000EA545646B4229E501A1C4D46B832157008
:1032F0001A1C4646B9321670BA22D2189046454674
:1033000003222A708846BC25D044A9464E4645462D
:103310009D51C0266546F554C126F7541F1CC2377F
:103320003A704144C427D951019D191CC8310D7010
:10333000009E191CC9310E70191CCA310A70012176
:103340004942CC2299505B669B665123E054364B30
:10335000002B01D0FFF71CFE03B03CBC9046994601
:10336000A246AB46F0BD314A41466A502C22A354D6
:1033700050226858A354032100F022FC42466064A6
:10338000A8582AE7D2B233251926B61AAA1AF6B2D5
:10339000D5B2CFE6271C5C372549C022381C02F085
:1033A0008CF91B4B8022D2058021D0588905D6503C
:1033B0000E68A6650F60D0502868221C1D4B9C32F9
:1033C0005A658046AA6828796EE6C04601E01E5B11
:1033D000A4200020A82200208C27002000100040FC
:1033E000FC0F0000240500000000D2591C0500005D
:1033F0001405000014140202340500003C0500000E
:10340000FFFF00002110010100E100E0FF00FFFFCD
:103410002C0500000C0500000405000000800040A1
:1034200000EE02008C2600200000000080BB00009F
:1034300000F001000C270020034888460468034878
:103440004465181C024C2FE6B02000200C270020F9
:103450008C270020124B2C22995C002917D0995CF4
:10346000012915D000202C2298540E4988225200A0
:10347000012388500B618B58002BFCD0094AC223D2
:103480009B000821D150084B01225A60DA60704736
:103490009A5C002050215854022AF8D1E2E7C04635
:1034A0008C270020001000400080004038B5124CEE
:1034B0002C23E25C0023022A01D0181C38BDE56BE6
:1034C000A26B9542F9D0EB7C0A1CEB759B08EB7460
:1034D0001C290FD8D2B2291C02F0EFF8074AE36B7F
:1034E000111C1C3390325831934200D90B1CE363FA
:1034F0000123E2E71C22EDE78C2700200C270020A7
:10350000F0B54B4A2C23D15C5F4656464D464446A7
:10351000F0B4002918D0D15C012900D17FE000234C
:103520002C2153544348882149004350012303610F
:103530004358002BFCD03F49C2239B000820C850B1
:103540003D4B01215960D9602C21535CDBB2002B2B
:10355000FBD13849394880270B503948C2240B50D9
:10356000384801260B50A320C0000B503648A40059
:103570000B503648BF000B50A720C0000B50A620B0
:10358000C0000B50A220C0000B50314876420B50B7
:10359000A120C0000B5084462E480B502E480B50E3
:1035A0008046CB512D480E51C021890045588B468D
:1035B0002B49A9460D1C49460D40594645508025CA
:1035C000022141511C49A94645464B5165464B5184
:1035D000CB51A827FF00CB51224FCB51A927FF0089
:1035E000CB510E510159FF26B143015180214900B1
:1035F0004C460151916D002908D01B48E40525581F
:103600008026B60523503160255093650021512353
:10361000D1543CBC90469946A246AB46F0BDD35C23
:10362000002050215054022B00D08DE777E7C04690
:103630008C2700200010004000800040240500007E
:103640001C05000014050000340500003C050000C6
:103650000C050000540500000405000000E100E036
:10366000FF00FFFF440500002C050000102303406D
:103670008206D20FDB10134308220240521013437C
:10368000042202405200134302220240D20013439C
:1036900001221040400103433F2098437047C04639
:1036A00008B5034B82001B68D150FCF78BFA08BDAC
:1036B000B020002010B5041CFCF7A4FA024BA400B3
:1036C0001B680022E25010BDB02000200000000066
:1036D00030B50F4DAB68002B10D00E4C0B4B0A4A87
:1036E0002068616812184B4122606360206861683D
:1036F000CBB2021C226063600023AB6000236B64CA
:1037000030BDC046C046C0460000000100000000B9
:10371000FC100140A82800200B4B0C4A186859687F
:103720000B4B10B5D4580023221C80185941054B6F
:10373000034A00F053FB4B04C00B1843C90B10BDE8
:10374000E803000000000000A8280020001001404D
:1037500004050000C046C04608B5FFF7DDFF08BD00
:1037600038B5041CFFF7F8FF051CFFF7F5FF401BF9
:10377000A04202D200F044F9F7E738BD00B5021EBE
:103780001F2A27D80C2925D8C132A023FF32081CB4
:10379000DB05920000F00AFA07140B07090D0F125F
:1037A0001416181A1C00002113E0042111E00C214A
:1037B0000FE001210DE00221FF310AE0064908E097
:1037C000064906E0064904E0064902E0064900E031
:1037D0000649995000BDC0460102000001030000E7
:1037E00001040000010500000106000001070000BF
:1037F00070B50B4D041C2B5C0E1C002B03D000F08D
:1038000001F900232B550122A023A240DB05141C43
:10381000002E02D0A121C90000E002495C5070BD19
:103820007C2200200C05000038B5094D041C2B5CDF
:10383000002B03D000F0E6F800232B55A223A02292
:10384000DB00D205D0580123E040184038BDC04607
:103850007C22002008B5FBF7E7FDFBF761FCFBF7D6
:10386000C1FCFCE710B500214022041C01F02EFF32
:1038700000232364201C636410BD036C3F220133CA
:103880001340426C934202D0026C8154036470472F
:10389000012070470369186C5B6C4030C01A3F23ED
:1038A000184070470369196C5A6C914202D05A6CE7
:1038B000985C01E00120404270470369196C5A6C22
:1038C000914207D05A6C3F21985C5A6C01320A40F1
:1038D0005A6401E0012040427047037E002BFCD176
:1038E000704707B5FF2300220276081C0093111CC5
:1038F0000122FBF7C5FE07BD13B50C1C111C1A1CD9
:1039000000230376FF230093201CFBF7B9FE13BDB1
:1039100010B5041CFBF776FE23695A6C1A6410BDBF
:1039200000234360FA239B008360034B016108334B
:10393000036042617047C046E058020008B5436921
:10394000196C5A6C914202D1002303760AE00122DD
:1039500002765A6C3F21985C5A6C01320A405A64D4
:10396000FBF70AFE08BD000038B50E4B041C1B789F
:10397000002B15D04069036C0B4D0133426C2B407A
:1039800004D54025013B6D422B4301339342F2D0D5
:10399000FFF773FF237E002B02D1201CFFF7CEFF21
:1039A000012038BDCC2100203F00008038B5114BEC
:1039B000041C1A6A1D1C002A04D0FBF7F3FD201C0E
:1039C000FFF7BCFFEB68002B12D0FBF7E5FDA3234C
:1039D000094ADB00D558FBF7EBFD002808D1206928
:1039E000E9B2FFF74AFF054B002B01D000E000BF12
:1039F00038BDC046FC200040002000400000000010
:103A00007047000070B5184E4500041CA85DFF28E3
:103A100003D0FCF7C3F8FF23AB5575196878FF286E
:103A200003D0FCF7BBF8FF236B70104B1A5DFF2A25
:103A300007D04532FF320E480E4992005050FF2207
:103A40001A5500230C4A9A181178A14201D1FF217E
:103A500011700A4A9A181178A14201D1FF21117000
:103A60000133032BEED170BD172000205A20002017
:103A7000001E03000060004057200020142000209A
:103A8000F8B5061C0C1C8F180025BC4207D0336803
:103A900021781B68301C984701342D18F5E7281C45
:103AA000F8BD000008B5044B5A68044BD205520D0E
:103AB000D358984708BDC04600ED00E0B420002070
:103AC000FEE700001048114910B5884201D00023DC
:103AD00001E00F4B07E00F4CCA18A242F9D2C458BC
:103AE00004331460F7E70C4A191D043B934203D2D8
:103AF00000221A600B1CF6E701F0AAFD00F00EF898
:103B0000FFF7A8FEFEE7C046845A0200002000200E
:103B10007C21002078210020CC2800201C4B10B5EF
:103B20001A78181C012A12D11A4B1B6819070ED1DA
:103B3000194BF0221B68E024191C1140234204D1C8
:103B4000164B1B68134202D118E03029F8D00378D5
:103B5000012B1BD10F4A1268110717D10E4A1168A9
:103B6000F0221140402911D10C49096811420DD1B0
:103B7000C1228021D200C9058B5007E00849094ABB
:103B800011608021084A09021160E0E710BDC046BB
:103B9000E00F00F0E40F00F0E80F00F0EC0F00F091
:103BA000DFFF07C004050040186C004002B47146F6
:103BB00049084900095C49008E4402BC7047C04670
:103BC000002934D00123002210B488422CD30124D0
:103BD0002407A14204D2814202D209011B01F8E765
:103BE000E400A14204D2814202D249005B00F8E71E
:103BF000884201D3401A1A434C08A04202D3001B4A
:103C00005C0822438C08A04202D3001B9C0822437C
:103C1000CC08A04202D3001BDC082243002803D0BA
:103C20001B0901D00909E3E7101C10BC70470028EC
:103C300001D00020C04307B4024802A140180290FE
:103C400003BDC046D90000000029F0D003B5FFF73E
:103C5000B9FF0EBC4243891A1847C046002941D01B
:103C600010B4041C4C40A44601230022002900D5B6
:103C70004942002800D5404288422CD30124240721
:103C8000A14204D2814202D209011B01F8E7E400FB
:103C9000A14204D2814202D249005B00F8E7884287
:103CA00001D3401A1A434C08A04202D3001B5C08FF
:103CB00022438C08A04202D3001B9C082243CC085C
:103CC000A04202D3001BDC082243002803D01B09BA
:103CD00001D00909E3E7101C6446002C00D54042DE
:103CE00010BC7047002806D003DB0020C04340080A
:103CF00001E08020000607B4024802A140180290AB
:103D000003BDC046190000000029EBD003B5FFF742
:103D1000A7FF0EBC4243891A1847C0467047C046E9
:103D20008446101C62468C46191C634600E0C0465F
:103D30001FB500F0B7FC002801D40021C8421FBD08
:103D400010B500F0E7FB4042013010BD10B500F0A7
:103D5000A9FC002801DB002010BD012010BDC046D9
:103D600010B500F09FFC002801DD002010BD0120EF
:103D700010BDC04610B500F017FC002801DC002083
:103D800010BD012010BDC04610B500F00DFC00288C
:103D900001DA002010BD012010BDC046002B11D15A
:103DA000002A0FD1002900D1002802D00021C943E8
:103DB000081C07B4024802A14018029003BDC04687
:103DC0005DFFFFFF03B4684601B5029800F064F898
:103DD000019B9E4602B00CBC7047C0469C46030443
:103DE000F0B51B0C17043F0C150C1E1C041C000C1A
:103DF0007E436B4347434543FB18300C18188742FA
:103E000002D980235B02ED18030CED1863465C4376
:103E10004A433604360CA118000480194919F0BD34
:103E200038B50E4B0C4A041C0D1CFFF7ADFF0028E3
:103E300004D1201C291C00F0DDFF38BD074B064AC9
:103E4000201C291C00F0ACFC00F0D4FF80231B06D2
:103E5000C018F2E7C046C046000000000000E04184
:103E6000F0B583B0161C1F1C0090019101F052F8B0
:103E7000041C0D1C221C2B1C301C391CFFF7AEFF30
:103E8000009A019B121A8B410899201C0A604B6012
:103E9000291C03B0F0BDC046F0B583B0141C1D1C36
:103EA0000090019101F012FA221C2B1C061C0F1C21
:103EB000FFF794FF009A019B121A8B410899301C5E
:103EC0000A604B60391C03B0F0BDC046F0B55646E1
:103ED00044465F464D46F0B41F1C0B031B0B98462F
:103EE0004B0087B0041C81465B0DC80F161C9A4618
:103EF0000090002B51D06A4B9A4531D08022414628
:103F000052030A43630FD2001A43664B90460025C2
:103F1000E20091469A44002402953B031B0B9B460A
:103F2000FD0F7B00311C5B0D019560D05C4A934214
:103F300054D08021584649030143720FC9001143F0
:103F4000584A8B469B18F1000020009A04436A40AF
:103F500003920F2C00D9ADE0534EA4003459A7466C
:103F6000404604436ED10021022508248846894634
:103F70000295D2E7009C0298C34649460194022864
:103F800064D0032800D1ABE2012800D038E2019AC6
:103F9000002402400025A14660E0434623434AD066
:103FA0004046002800D1C0E100F096FF031E272BF9
:103FB00000DDB3E128210D1A211C083B4246E940EF
:103FC0009A400D1C1543221C9A40A8469146374B37
:103FD00000251B1A9A46002402959EE75A4616436E
:103FE0000320002EB1D1B34600210220ADE75A468E
:103FF00032431BD05B46002B00D18AE1584600F0CB
:104000006BFF272800DD7DE12822171A011C321CD6
:1040100008395B46FA408B40171C1F43331C8B400A
:10402000BB46191C214B1B1A00208EE70027BB46FC
:104030000021012089E700200125042480468146D3
:1040400002956AE703250C24029566E7019C039418
:10405000039D01222A400024114DA1460020002189
:104060002403260B0C0D2405114B34432D0523404E
:104070002B435B005B08D207191C4846114307B06D
:104080003CBC90469946A246AB46F0BD0022802437
:1040900024039146024DE1E700240025A146DDE717
:1040A000FF07000001FCFFFF105902000DFCFFFF9D
:1040B000FFFF0F805546ED1A0495D84500D953E10E
:1040C00000D14EE1049C0025013C4E460494474635
:1040D000A946584603020C0E1C430902250C230472
:1040E0001B0C0091381C291C0193FFF769FD0199F5
:1040F00083464143381C8A46291CFFF7A5FD330C33
:10410000090419438A450CD95B460919013B8C42C5
:1041100000D947E18A4500D844E102225242934443
:1041200009195346CB1A181C291C9846FFF748FD5D
:10413000071C0198291C784382464046FFF784FDFE
:1041400036040B04360C33439A4509D91B197A1EE1
:104150009C4200D924E19A4500D821E1023F1B1975
:104160005E4632041743380CBB46009E009F514602
:104170003F0C32045B1A5946BA46120C0F043F0C2E
:10418000904651467A434F43414641435646704319
:10419000CF19160CBE19B14202D980277F02C0196F
:1041A000310C12043604120C4018B618834200D2A7
:1041B000C4E000D1BEE0191A4846861BB145BF4194
:1041C0007F42CF1BA74200D113E1291C381CFFF707
:1041D000F7FC019902904143381C8946291CFFF7DE
:1041E00033FD330C0904194389450CD9029B091985
:1041F000013B8C4200D9FFE0894500D8FCE0029FDA
:104200000919023F02974F46CF1B381C291C0597FE
:10421000FFF7D6FC071C0198291C784381460598B6
:10422000FFF712FD36040904360C0E43B14509D9D7
:1042300036197B1EB44200D9E0E0B14500D8DDE07C
:10424000023F3619029D4946761A290439430B0468
:1042500057460A0C1B0C40464546584355437B4382
:104260007A43EB18070CDB199D4202D980256D02B9
:1042700052191D0C00041B04000C52191B18964205
:1042800035D300D1FCE001231943049E994FF51961
:10429000002D00DCA1E0480709D00F230B40042BC0
:1042A00005D00B1D8B42894149428B44191C5A464B
:1042B000D20107D5904B5C46049E80271C40FF002E
:1042C000A346F5198D4B9D427ADD039C01222240C5
:1042D00000248B4DA146C1E6802424034746274293
:1042E0004CD13C432403240B009A854DB6E6361985
:1042F000481EB4425ED9011C9642C4D1009E9E4223
:10430000C1D1C2E7031C283B311C99408B460021D8
:1043100088E6301C00F0E0FD203072E6283B211CCE
:10432000994000228846914651E6201C00F0D4FDB9
:1043300020303BE60021B14500D33DE7009F5A46BF
:10434000B944B945BF417F423F19FB18013A9C422D
:104350001ED2984200D97EE000D1B5E0191A9346EA
:104360002AE7894500D8ADE64846464642467708E2
:10437000D3074608C0071E438146AAE65846204296
:1043800012D1044324032A1C240B89465C4D65E6A4
:10439000A342E3D1009F4F45DBD9211A93460BE797
:1043A000171CDDE69B46BCE63C432403240B009A25
:1043B000534D53E6B24259D800D18AE0011C62E75E
:1043C0005F46C9087B07039E0B437C026D050122F3
:1043D0009946240B6D0D324040E64A4B049FDB1B8F
:1043E000382B10DD039C0122224000240025A14629
:1043F00034E60121494248E7029304E71F1C21E704
:10440000019C039441E71F2B40DC3F48049F0C1C98
:104410003A1858469140DC40904020430A1C511EF7
:104420008A41011C11435A46DA40131C480709D03F
:104430000F220A40042A05D00A1D8A4289414942B6
:104440005B18111C1A0234D5039C0122224000245F
:104450000125A14602E6009F02214942B9448B444E
:10446000B945894149420919CB18A4E6009D881E27
:104470006900A942AD416D422C19361900913AE705
:10448000002B00D033E70024009437E71F4A049C38
:104490005D46121BD5402A1C202B1FD01C4E5F46A8
:1044A000A3199F403B1C19434B1E99411143002304
:1044B000BCE75A07C9080A43039F91465B020122E1
:1044C0001C0B3A400025C9E54E45C4D8934600214F
:1044D00072E6009F9F42C9D3011C0FE70023E2E769
:1044E000802424035F463C432403240B019A89461D
:1044F000034DB3E5FF030000FFFFFFFEFE070000D2
:10450000FF07000002FCFFFF1E040000E2FBFFFFAC
:104510003E040000F0B55F4656464D464446F0B4B2
:104520000D1C041C8046E80F814618030F03000B86
:104530003F0B83B084461B48009749005E00DF0FA5
:10454000490D9246760DBB4681420CD015488642F5
:1045500010D00120B14215D003B03CBC9046994622
:10456000A246AB46F0BD009F01202743F4D10D4881
:104570008642EED1604602430120002AECD10120A0
:10458000B142E9D1009B6345E6D1D045E4D1D9459C
:1045900006D00029E0D11C43201C441EA041DBE7CB
:1045A0000020D9E7FF070000F0B55F4656464D46AC
:1045B0004446F0B4CD0FDE0FAC461D032D0BB146C3
:1045C000374E0F034C00AB465D0080463F0B640D39
:1045D00092466D0DB44232D0314EB54235D0002CEA
:1045E0000ED1384341424141081C002D0BD0002917
:1045F00019D1CC452DD0654668420123184318E0F7
:10460000002DF6D1281C59460A4353425341002835
:1046100006D1002BEDD0634658420123184308E031
:104620000020002B05D14A46504250414042012310
:1046300018433CBC90469946A246AB46F0BD3E1C92
:104640000643C9D002204042F3E75E461643C6D077
:10465000F8E7AC4207DC0BDA614648424841404289
:1046600001231843E5E76646704201231843E0E75B
:104670005F450AD80ED000205F45DAD26546684211
:104680006841404201231843D3E762465042012368
:104690001843CEE7D045F8D80020D045EED3C8E780
:1046A000FF070000F0B556464D4644465F46F0B45D
:1046B0000D1C83B0041C0190E80F814618030F0302
:1046C000000B3F0B84463548009749005E00DF0F22
:1046D000490D9246760DB846814234D02F48864225
:1046E00036D0002918D0002E1FD1341C67463A431B
:1046F00053425341002C1FD00020002B05D14246CD
:104700005042504140420123184303B03CBC904604
:104710009946A246AB46F0BD009804436042604112
:10472000041C002EE2D00028E9D1C14515D04F4627
:10473000784201231843E8E7002BF6D04B46584255
:1047400001231843E1E7009F02202743DDD1C5E79D
:10475000674602201743D8D1C3E7B14204DD4A4679
:10476000504201231843D0E7B14207DB009860456F
:10477000E4D80AD0009F00206745C6D24F46784251
:104780007841404201231843BFE7019A5245D5D8EA
:10479000019A00205245F1D3B7E7C046FF07000059
:1047A000F8B55F46564644464D46F0B40C034D00FE
:1047B000CF0F610A440F2143C4001803DE0F804667
:1047C000B44646465800760A530F3343D600C94ACA
:1047D0006D0DBA46400DB346904200D1EBE0624603
:1047E000012672409446674500D1A1E02F1A002FA0
:1047F00000DC08E100283BD15846184300D0E8E02F
:10480000600709D00F232340042B05D0231DA342AA
:10481000A441644209191C1C0A0200D479E0B54B7A
:104820006A1C9A4200D109E1B34BE40819404807D9
:10483000044349025205012750460B0B520D074015
:10484000002000211B03201C1C0B0B0D1B05AB4D76
:104850002343520552081D4015436D006D08FF07A4
:10486000291C39433CBC90469946A246AB46F8BD4C
:10487000A0488542C4D0802000040343382F00DDC7
:10488000F0E01F2F00DD24E12020C01B1A1C5E4633
:104890008240FE40324394465A468240101C421EDB
:1048A0009041FB40624602431F1CA21A9442A4415D
:1048B0006442C91B091B141C0A02A1D549024F0AF4
:1048C000002F00D1C9E0381C00F006FB021C083A9A
:1048D0001F2A00DDBCE02821231C091A9740CB4089
:1048E0001F439440954200DDAEE0551B691C1F2913
:1048F00000DDDDE01F22551B3B1C221CAB40CA40E3
:10490000AC40651EAC411343CF401C43391C00250D
:1049100076E74807E4086A0501275646C908520D9C
:1049200037400443734B9D4249D009030B0B87E783
:104930002A1A9446002A00DC9BE0002855D06D48D6
:10494000854200D15CE7802000040343604638289C
:1049500000DD09E11F2800DD50E162462020801AB9
:104960001E1C8640B1465E46D6404A4632435E46ED
:1049700086409046301C421E9041424602436046AB
:10498000C3401219A242A441644259180919141CC7
:10499000080200D434E7574B01359D4200D142E173
:1049A000554B60081940012323401C1C0443CB07CE
:1049B0001C43490824E71E4300D014E70FE70B1CF3
:1049C000234300D1CFE180231B030B431B031B0BAD
:1049D00036E7013F002F66D15E46A21B9442A441F8
:1049E0006442C91A091B141C66E75846184300D1D3
:1049F00006E701267642B4446046002800D0CAE0AB
:104A00005E463219BEE7002F7AD1681C4005400D82
:104A1000012800DCE3E05A46A21A9442BF41C81ABA
:104A20007F42C71B3E0200D492E05846041BA345B8
:104A30009241591A52428F1AE24641E753460127E2
:104A40001F4000240023FBE62B49AD1A3940D7E66E
:104A5000271C28388740002444E7201C00F03CFA3B
:104A6000203033E75A461A43531E9A41D2B20027E8
:104A70001BE7002A00D0E1E0681C4605760D012EF8
:104A800000DC91E01B4DA84200D1F7E05E463219F0
:104A9000A242A441644259180919CC075208144390
:104AA0004908051CACE61348854200D0E6E6A7E6B7
:104AB0002B1C1F3B3E1CDE40331C202970D03F22A4
:104AC000551BAF403C43601E84411C430021002520
